:10000000F0C100001EC200001CC200001AC20000A5
:1000100018C2000016C2000014C2000012C2000084
:1000200010C200000EC200000CC200000AC2000094
:1000300008C2000006C2000004C2000002C20000A4
:1000400000C20000FEC10000FCC10000FAC10000B7
:10005000F8C10000F6C10000F4C10000A0C6000015
:10006000F0C10000EEC10000ECC10000EAC10000D8
:10007000E8C10000E6C10000E4C10000E2C10000E8
:100080000C944408DEC10000DCC10000DAC10000AD
:1000900050C6000025C60000D4C10000D2C1000037
:1000A000D0C10000CEC10000C4C60000CAC100001B
:1000B000C8C10000C6C10000C4C10000C2C1000028
:1000C000C0C10000BEC10000BCC10000BAC1000038
:1000D000B8C10000B6C10000B4C10000B2C1000048
:1000E000B0C10000A503A80397039B039F03DF0390
:1000F000AC03B003B603BA03BE03C403C803CC0306
:10010000DF03D203D603DA0319041E0423042D04EB
:100110003704B0044104490451045B0465046F04CE
:100120007E048804B00492049C04A6044E414E4907
:100130004E495459494E46CDCCCC3D0AD7233C17A5
:10014000B7D13877CC2B329595E6241FB14F0A00F2
:100150000020410000C84200401C4620BCBE4CCAE2
:100160001B0E5AAEC59D7400407A10F35A00A0725F
:100170004E18090010A5D4E80000E87648170000E2
:10018000E40B54020000CA9A3B000000E1F50500B0
:100190000080969800000040420F000000A08601F9
:1001A000000000102700000000E8030000000064C9
:1001B00000000000000A0000000000010000000034
:1001C000002C76D888DC674F0823DFC1DFAE59E109
:1001D000B1B796E5E3E453C63AE651997696E8E678
:1001E000C28426EB898C9B62ED407C6FFCEFBC9C4B
:1001F0009F40F2BAA56FA5F490055A2AF75C936B5D
:100200006CF9676DC11BFCE0E40D47FEF520E6B517
:1002100000D0ED902E0300943577050080841E08F1
:100220000000204E0A000000C80C333333330F980F
:100230006E12831141EF8D2114893BE65516CFFED6
:10024000E6DB18D1844B381BF77C1D901DA4BBE462
:1002500024203284725E228100C9F124ECA1E53DA4
:10026000272C225338223A002C225337223A002CD2
:10027000225336223A002C225335223A002C2253A4
:1002800034223A002C225333223A002C22533222B9
:100290003A002C225331223A002C225330223A00C9
:1002A0002C224544223A002C224549223A002C2295
:1002B0004550223A002C22504F53223A002C22560D
:1002C000454C223A002C224B44223A002C224B4926
:1002D000223A00224B50223A0000000A0B02090C7D
:1002E0000D0E0807030401000000000000000000DC
:1002F00000000000000000000000000000000000FE
:1003000000000000001211100000000000000000BA
:1003100000000000000000000000000000000000DD
:10032000002200250028002B002E0031003400029E
:10033000010000050108010B010000210024002735
:10034000002A002D003000330001010000040107E5
:10035000010A01050505050705080808080202024B
:10036000020A0A0808040404040101010101010150
:10037000010303030303030303040707070C0C0C27
:100380000C0C0C0C0C0202020206060606060606FF
:10039000060B0B0B0B0B0B0B0B010210202008089C
:1003A00010204010204080020102010804020101D7
:1003B00002040810204080804020100804020180C0
:1003C0000402018040201008040201080402010117
:1003D0000204081020408001020408102040800020
:1003E000760B11241FBECFEFD1E2DEBFCDBF00E000
:1003F0000CBF12E0A0E0B2E0E6E2F9E200E00BBFE1
:1004000002C007900D92A835B107D9F723E0A8E5FF
:10041000B2E001C01D92A634B207E1F711E0C1EFCE
:10042000D1E000E006C021970109802FFE010E9463
:100430006412C03FD10780E00807A9F76ED70C947B
:100440009114DECD90E0FC01E756FC4F2491FC01B5
:10045000ED5AFC4F8491882399F090E0880F991F02
:10046000FC01E75CFC4FA591B491FC01E15EFC4FFF
:10047000859194918FB7F894EC91E22BEC938FBF18
:100480000895CF92DF92EF92FF920F931F93CF9335
:10049000DF936C017A018B01C0E0D0E0CE15DF055F
:1004A00089F0D8016D918D01D601ED91FC910190FB
:1004B000F081E02DC6011995892B11F47E0102C04F
:1004C0002196ECCFC701DF91CF911F910F91FF9043
:1004D000EF90DF90CF900895089580E090E0089528
:1004E000FC01538D448D252F30E0842F90E0821B3A
:1004F000930B541710F0CF96089501970895FC01BF
:10050000918D828D981761F0828DDF01A80FB11D4A
:100510005D968C91928D9F5F9F73928F90E008956E
:100520008FEF9FEF0895FC01918D828D981731F028
:10053000828DE80FF11D858D90E008958FEF9FEF7C
:100540000895FC01918D228D892F90E0805C9F4F52
:10055000821B91098F739927089583EA92E0F1DF56
:1005600021E0892B09F420E0822F0895FC01848D7D
:10057000DF01A80FB11DA35ABF4F2C91848D90E0CD
:1005800001968F739927848FA689B7892C93A089A8
:10059000B1898C9180648C93938D848D981306C05F
:1005A0000288F389E02D80818F7D80830895EF920A
:1005B000FF920F931F93CF93DF93EC0181E0888F1D
:1005C0009B8D8C8D981305C0E889F989808185FD04
:1005D00023C0F62E0B8D10E00F5F1F4F0F731127F6
:1005E000E02E8C8DE8120BC00FB607FCFACFE8891D
:1005F000F989808185FFF5CFCE01B8DFF2CF8B8DF1
:10060000FE01E80FF11DE35AFF4FF0820B8FEA89DC
:10061000FB898081806207C0EE89FF896083E88959
:10062000F98980818064808381E090E0DF91CF91BF
:100630001F910F91FF90EF900895CF93DF93EC01FE
:10064000888D8823C1F0EA89FB89808185FD05C0FA
:10065000A889B9898C9186FD0EC00FB607FCF5CF2D
:10066000808185FFF2CFA889B9898C9185FFEDCF74
:10067000CE017CDFE8CFDF91CF91089580E090E05C
:10068000892B41F080E090E0892B21F00E9400004E
:10069000811120C080E090E0892B19F05EDF81118C
:1006A0001CC080E090E0892B41F080E090E0892B35
:1006B00021F00E940000811113C080E090E0892B9E
:1006C000A1F080E090E0892B81F00E940000811170
:1006D0000AC008950E940000DDCF0E940000E1CF13
:1006E0000E940000EACF0C9400000895362F90E09D
:1006F000FC01E752FD4F4491FC01E756FC4F249169
:10070000FC01ED5AFC4F9491992309F46BC04423EA
:1007100009F455C050E0FA013197E231F10508F0D3
:100720004EC08827EE58FF4F8F4F0C946412809173
:1007300080008F7707C0809180008F7D03C08091FB
:100740008000877F809380003AC084B58F7702C095
:1007500084B58F7D84BD33C08091B0008F7703C096
:100760008091B0008F7D8093B00029C0809190006F
:100770008F7707C0809190008F7D03C0809190009B
:10078000877F809390001BC08091A0008F7707C067
:100790008091A0008F7D03C08091A000877F80930F
:1007A000A0000DC0809120018F7707C080912001AB
:1007B0008F7D03C080912001877F80932001E92FE6
:1007C000F0E0EE0FFF1FE15EFC4FA591B4918FB7F3
:1007D000F894EC91311103C020952E2301C02E2BEB
:1007E0002C938FBF08951F93CF93DF93182FEB01A6
:1007F00029DE209711F460E004C0CF3FD10531F429
:1008000061E0812FDF91CF911F9170CFE12FF0E058
:10081000E752FD4FE4914E2F50E0FA013197E2315B
:10082000F10508F09DC08827EC57FF4F8F4F0C94BF
:10083000641284B5806884BDC7BD97C084B58062EA
:1008400084BDC8BD92C08091800080688093800084
:10085000D0938900C093880088C080918000806216
:1008600080938000D0938B00C0938A007EC08091DB
:100870008000886080938000D0938D00C0938C00AE
:1008800074C08091B00080688093B000C093B300C2
:100890006CC08091B00080628093B000C093B400BF
:1008A00064C080919000806880939000D0939900FC
:1008B000C09398005AC0809190008062809390000D
:1008C000D0939B00C0939A0050C0809190008860A4
:1008D00080939000D0939D00C0939C0046C080916F
:1008E000A00080688093A0008091A0008F7B8093FF
:1008F000A000D093A900C093A80037C08091A000A9
:1009000080628093A000D093AB00C093AA002DC05A
:100910008091A00088608093A000D093AD00C09328
:10092000AC0023C080912001806880932001D09387
:100930002901C093280119C0809120018062809311
:100940002001D0932B01C0932A010FC08091200178
:10095000886080932001D0932D01C0932C0105C0A5
:10096000C038D1050CF04CCF46CFDF91CF911F910D
:100970000895863308F0865390917B00282F2870C5
:10098000977F922B90937B008770806480937C008C
:1009900080917A00806480937A0080917A0086FD4D
:1009A000FCCF809178002091790090E0922B0895FF
:1009B0002FB7F89460917D0270917E0280917F0242
:1009C000909180022FBF08950F931F93F1DF6093E2
:1009D000AB027093AC028093AD029093AE02E091B3
:1009E000A302F091A4020284F385E02D83EA92E051
:1009F000199597FF1EC0DCDF0091AB021091AC028D
:100A00002091AD023091AE02DC01CB01801B910B35
:100A1000A20BB30B0091A7021091A8022091A9028A
:100A20003091AA0280179107A207B307C0F28FEF97
:100A30009FEF1F910F910895CF93DF93EC01BC01BD
:100A400097FF04C066277727681B790B86E0CBDE0B
:100A50006D2F661F6627661F87E048DE61E01C1663
:100A60001D060CF060E080E1DF91CF913FCECF9387
:100A7000DF93EC01BC0197FF04C066277727681B52
:100A8000790B89E0B0DE6D2F661F6627661F85E350
:100A90002DDE61E01C161D060CF060E088E0DF91A1
:100AA000CF9124CE0E947D140F931F93CF93DF9399
:100AB000EC0188819981009729F02A813B812617D2
:100AC000370788F48B016F5F7F4F0E94991300975F
:100AD00061F0998388831B830A832C813D81232BBA
:100AE00011F4FC01108281E001C080E0DF91CF9120
:100AF0001F910F910895EF92FF920F931F93CF9341
:100B0000DF936115710511F480E01BC08B01EC01CE
:100B1000CB0142D60097A1F02C813D817C01E20EF1
:100B2000F31EB701CE01C0DF882371F3288139811C
:100B30008C819D81B801820F931F27D6FD82EC82A4
:100B400081E0DF91CF911F910F91FF90EF90089579
:100B5000EF92FF920F931F93CF93DF93FC012481B9
:100B600035816115710511F480E018C041155105FA
:100B7000A1F07B01EC018A01020F131FB80194DF81
:100B8000882391F3288139818C819D81B701820F5F
:100B9000931F0E948A141D830C8381E0DF91CF9103
:100BA0001F910F91FF90EF900895EF92FF920F9396
:100BB0001F93CF93DF93CDB7DEB764970FB6F8944A
:100BC000DEBF0FBECDBF7C01CB01BA018E010F5F2E
:100BD0001F4F22E044E0B7D5BC01FC01019000208A
:100BE000E9F73197AF01481B590BC701B1DF649694
:100BF0000FB6F894DEBF0FBECDBFDF91CF911F912E
:100C00000F91FF90EF900895EF92FF920F931F9333
:100C1000CF93DF93CDB7DEB728970FB6F894DEBF3A
:100C20000FBECDBF7C01CB014AE08E010F5F1F4F8D
:100C3000B801BBD5F80101900020E9F73197AF0169
:100C4000401B510BB801C70183DF28960FB6F894FB
:100C5000DEBF0FBECDBFDF91CF911F910F91FF90EF
:100C6000EF900895EF92FF920F931F93CF93DF932E
:100C7000EC017B018A01BA0117DF288139818111DA
:100C80000DC02115310519F0C9010E940113198207
:100C900018821D821C821B821A8206C01D830C834F
:100CA000B701C9010E948A14CE01DF91CF911F9133
:100CB0000F91FF90EF900895FC0111821082138232
:100CC0001282158214826115710549F0FB010190B1
:100CD0000020E9F73197AF01461B570BC3CF0895AA
:100CE0001F920F920FB60F9211240BB60F922F93F3
:100CF0003F934F935F936F937F938F939F93AF93A4
:100D0000BF93EF93FF9383EA92E030DCFF91EF9182
:100D1000BF91AF919F918F917F916F915F914F9113
:100D20003F912F910F900BBE0F900FBE0F901F9011
:100D300018951F920F920FB60F9211240BB60F92B7
:100D40002F938F939F93EF93FF93E091B302F091D2
:100D5000B4028081E091B902F091BA0282FD12C022
:100D600090818091BC028F5F8F732091BD028217AA
:100D700051F0E091BC02F0E0ED55FD4F958F80936E
:100D8000BC0201C08081FF91EF919F918F912F91C3
:100D90000F900BBE0F900FBE0F901F9018951F92D3
:100DA0000F920FB60F9211242F933F938F939F931F
:100DB000AF93BF9380917D0290917E02A0917F02BC
:100DC000B091800230917C0223E0230F2D3720F474
:100DD0000196A11DB11D05C026E8230F0296A11D95
:100DE000B11D20937C0280937D0290937E02A0939C
:100DF0007F02B09380028091780290917902A09155
:100E00007A02B0917B020196A11DB11D80937802F8
:100E100090937902A0937A02B0937B02BF91AF9135
:100E20009F918F913F912F910F900FBE0F901F9028
:100E300018951F920F920FB60F9211240BB60F92B6
:100E40000F931F932F933F934F935F936F937F93D2
:100E50008F939F93AF93BF93EF93FF93CF93DF93C2
:100E600000D000D0CDB7DEB762E572E0CE010196CA
:100E700023DF63ED72E0CE0101963DDE40919F02DB
:100E80005091A0026091A1027091A202CE01019640
:100E90008CDE6CEC72E0CE0101962DDE40919B025F
:100EA00050919C0260919D0270919E02CE0101962C
:100EB0007CDE65EC72E0CE0101961DDE409197026A
:100EC000509198026091990270919A02CE01019618
:100ED0006CDE6DEB72E0CE0101960DDE6091950245
:100EE00070919602CE0101968FDE65EB72E0CE0125
:100EF000019601DE409100025091010260910202D0
:100F000070910302CE01019650DE6EEA72E0CE01CE
:100F10000196F1DD40917402509175026091760264
:100F200070917702CE01019640DE67EA72E0CE0151
:100F30000196E1DD40E050E0BA01CE01019635DED8
:100F400060EA72E0CE010196D6DD409170025091C8
:100F500071026091720270917302CE01019625DEDA
:100F600069E972E0CE010196C6DD0EE512E0F801F6
:100F700060817181CE01019647DE62E972E0CE01A7
:100F80000196B9DDF80162817381CE0101963CDEE4
:100F90006BE872E0CE010196AEDDF80164817581E7
:100FA000CE01019631DE64E872E0CE010196A3DD48
:100FB000F80166817781CE01019626DE6DE772E049
:100FC000CE01019698DDF80160857185CE0101960C
:100FD0001BDE66E772E0CE0101968DDDF8016285C9
:100FE0007385CE01019610DE6FE672E0CE010196A8
:100FF00082DDF80164857585CE01019605DE68E61F
:1010000072E0CE01019677DDF80166857785CE0125
:101010000196FADD61E672E0CE0101966CDDF80121
:1010200060897189CE010196EFDD42E050E064E510
:1010300072E0CE0101968CDD4D815E8169817A81FD
:1010400083EA92E01EDA89819A810E940113269632
:101050000FB6F894DEBF0FBECDBFDF91CF91FF91E9
:10106000EF91BF91AF919F918F917F916F915F9120
:101070004F913F912F911F910F910F900BBE0F90A9
:101080000FBE0F901F9018951F920F920FB60F92E0
:1010900011240BB60F923F924F925F926F927F9204
:1010A0008F929F92AF92BF92CF92DF92EF92FF9278
:1010B0000F931F932F933F934F935F936F937F9360
:1010C0008F939F93AF93BF93EF93FF93CF93DF9350
:1010D000CDB7DEB72897DEBFCDBF809181028823D0
:1010E00009F47CC002E812E084E092E09C838B83E8
:1010F000AEE5B2E0BA83A983ECE1F2E0F887EF83D2
:10110000312C412C512C320153014201D801ED9177
:10111000FD918D01FE83ED83AB81BC81CD90DD908F
:10112000BC83AB830D2C000CEE08FF08832D21DC63
:10113000092E000CAA0BBB0B9C01AD012C193D091B
:101140004E095F09AFEFB3E00E942B11ED81FE81E4
:101150009F01FF0F440B550B2C193D094E095F09E8
:101160000E940F116FEF73E0621B730BA981BA81AC
:101170006D937D93BA83A983072E000C880B990B7E
:1011800038D76B017C01EF81F88521913191419134
:101190005191F887EF838CD79B01AC01C501B40155
:1011A0000E9467114B015C01A7019601C301B201C6
:1011B0000E9467112B013C013394F9E03F12A6CF46
:1011C0009B01AC01C501B4010E94CB1160930002E8
:1011D00070930102809302029093030220E030E0BA
:1011E00040EC50E460910002709101028091020293
:1011F000909103020E9466116B017C0120919F0275
:101200003091A0024091A1025091A20251D74B010E
:101210005C016093740270937502809376029093E0
:10122000770220915A0230915B0240915C0250910A
:101230005D02C701B6010E946611209197023091AC
:1012400098024091990250919A0232D79B01AC01C9
:101250006093700270937102809372029093730294
:10126000C0925A02D0925B02E0925C02F0925D0260
:10127000C501B4010E9467110E9433127093590294
:1012800060935802161617066CF42091950230915F
:101290009602C901860F971FCFDB80E090E0E7DB65
:1012A00060E00FC06115710571F000919502109119
:1012B0009602061B170B80E090E0BEDBC801D7DB6F
:1012C00061E086E213DA28960FB6F894DEBF0FBE0F
:1012D000CDBFDF91CF91FF91EF91BF91AF919F91E2
:1012E0008F917F916F915F914F913F912F911F91BE
:1012F0000F91FF90EF90DF90CF90BF90AF909F90B5
:101300008F907F906F905F904F903F900F900BBEAB
:101310000F900FBE0F901F901895CF93DF93CDB70E
:10132000DEB72C970FB6F894DEBF0FBECDBF789412
:1013300084B5826084BD84B5816084BD85B58260DA
:1013400085BD85B5816085BD80916E00816080938B
:101350006E001092810080918100826080938100F4
:101360008091810081608093810080918000816004
:10137000809380008091B10084608093B10080915F
:10138000B00081608093B000809191008260809372
:1013900091008091910081608093910080919000F4
:1013A0008160809390008091A10082608093A10071
:1013B0008091A10081608093A1008091A000816054
:1013C0008093A0008091210182608093210180910F
:1013D00021018160809321018091200181608093AF
:1013E000200180917A00846080937A0080917A0055
:1013F000826080937A0080917A00816080937A0085
:1014000080917A00806880937A001092C100E09108
:10141000B302F091B40282E08083E091AF02F091D8
:10142000B0021082E091B102F091B20280E18083BB
:101430001092BB02E091B702F091B80286E080837F
:10144000E091B502F091B602808180618083E091E5
:10145000B502F091B602808188608083E091B50288
:10146000F091B602808180688083E091B502F091AE
:10147000B60280818F7D8083F8941092A000109234
:10148000A1001092A5001092A40085E39CE0909327
:10149000A9008093A8008091A10088608093A1009A
:1014A0008091A10084608093A1008091720082608D
:1014B000809372007894F8941092900010929100AA
:1014C000109295001092940082EE94E0909399000F
:1014D0008093980080919100886080939100809122
:1014E000910084608093910080917100826080936C
:1014F0007100789489E00E94220286E00E94220214
:1015000085E30E94220288E00E94220287E00E9476
:10151000220280E10E9422024BDA4B01770FAA08D7
:10152000BB0846DADC01CB0188199909AA09BB0975
:1015300088389341A105B10528F592E8C92E92E0BB
:10154000D92E24E0E22E22E0F22E10E0812F11DAD3
:10155000F60120813181281739070CF49C01F6012E
:10156000219331936F01F701208131818217930715
:101570000CF49C01F701219331937F011F5F193017
:1015800029F7CFCF81E08093810283EA92E00E9425
:10159000A102181619060CF0A6C066E572E0CE018D
:1015A00007968ADB11DA97FD0EC08A30910559F053
:1015B00089831A8241E050E0BE016F5F7F4FCE0108
:1015C0000796C6DAEFCF0B851C850115110521F0B2
:1015D000EF81F885309721F410929402E4E9F2E06B
:1015E000B0800115110529F4E12CF12C01E010E087
:1015F00003C0EE24E394F12C66E572E0CE0101967F
:101600005BDB8B859C85E816F90670F580179107E2
:1016100008F48C01EF81F885E00FF11FD080108273
:101620006F8178856E0D7F1D6115710561F0FB017D
:1016300001900020E9F73197AF01461B570BCE010F
:10164000019610DB0BC089819A81009709F0D9D7E8
:101650001A8219821E821D821C821B828F819885AC
:10166000FC01E00FF11FD08289819A81009721F05F
:1016700089D06B017C0103C0C12CD12C76018981FA
:101680009A81BFD720E5B21209C0C0929F02D092C2
:10169000A002E092A102F092A20222C089E4B81254
:1016A00009C0C0929B02D0929C02E0929D02F092EF
:1016B0009E0216C0E4E4BE1209C0C0929702D09206
:1016C0009802E0929902F0929A020AC0F6E5BF12DF
:1016D00007C0C701B601C7D6709396026093950202
:1016E0008F8198858ED70E943E034FCFE3EAF2E0C8
:1016F0001382128288EE93E0A0E0B0E084839583A9
:10170000A683B78384E492E0918380838DEC90E09C
:10171000958784878CEC90E09787868788EC90E0AB
:10172000918B808B89EC90E0938B828B8AEC90E09C
:10173000958B848B8EEC90E0978B868B118E128E1E
:10174000138E148E0895EF920F931F93CF93DF9310
:10175000E80147FD02C034E001C034E1E42F440F4A
:10176000FF0BF7FF03C0F195E195F109E32E022F7E
:101770002E2FAE013DD0CE01DF91CF911F910F9161
:10178000EF90089566277727C0C1FB01DC01059023
:101790000D920020E1F70895FC0105900020E9F783
:1017A000809590958E0F9F1F0895BB274A3031F486
:1017B000992322F4BDE2909581959F4F01C0BB27EC
:1017C000FB015527AA27880F991FAA1FA41710F0FD
:1017D000A41B83955051B9F7A05DAA3308F0A95D09
:1017E000A193009779F7B111B1931192CB01EBC39B
:1017F0004F925F926F927F929F92AF92BF92CF92E1
:10180000DF92EF92FF920F931F93CF93DF93CDB7A9
:10181000DEB729970FB6F894DEBF0FBECDBF6A01C1
:10182000122FB02E2BE3201720F0FF24F394F00E9C
:1018300002C0BCE3FB2E0F2D27E0AE014F5F5F4FD0
:10184000CAD2AC018981982F9970913031F0E1FCB6
:1018500006C0E0FE06C090E205C09DE203C09BE228
:1018600001C090E0EE2DE07183FF3CC0911102C0F9
:1018700083E001C084E0811718F4212F281B01C0E8
:1018800020E0E1110BC0F601822F30E2882319F02D
:1018900031938150FBCFC20ED11C20E0992329F057
:1018A000D6019C93F60131966F01C6010396E2FEC4
:1018B0000AC03EE4D6013C9341E411964C93119743
:1018C00012963C9306C03EE6F601308341E6418322
:1018D0003283FC01322F40E2332309F442C04193AA
:1018E0003150FACF82FF44C0911102C083E001C0A1
:1018F00084E0811718F4212F281B01C020E0E1119A
:101900000BC0F601822F30E2882319F03193815009
:10191000FBCFC20ED11C20E0992329F0D6019C9365
:10192000F60131966F01C6010396E2FE0BC039E461
:10193000D6013C933EE411963C93119736E41296FF
:101940003C9307C039E6F60130833EE6318336E644
:101950003283FC01322F40E2332319F0419331509E
:10196000FBCFFC01E20FF11D10828EEF9FEFB7C09D
:10197000F1E0911101C0F0E06F2F70E01416150630
:1019800024F49A012F5F3F4F02C021E030E0260F80
:10199000371FBB2029F06B2D70E06F5F7F4F02C0B7
:1019A00060E070E0260F371F612F70E026173707C1
:1019B0001CF4121B212F01C020E03E2D387159F478
:1019C000D601322F60E2332319F06D933150FBCFF3
:1019D000C20ED11C20E0FF2331F0D6019C93B6014A
:1019E0006F5F7F4F6B01E1110BC0F601922F30E367
:1019F000992319F031939150FBCFC20ED11C20E0F6
:101A00009F2D940F3A81782F7071A72E84FF03C009
:101A1000313309F49150191624F4993018F098E0F4
:101A200001C091E0E42F852F57FF02C0E0E080E085
:101A30006E2F782FE0E0F0E0AEE29A2E3A01691ABC
:101A400071082A01461A570A0B2D10E011950195CD
:101A500011096F3F8FEF780729F4D6019C92C601D8
:101A600001966C014617570784F0661677066CF4EA
:101A70007F01E40CF51CA1E0B0E0AC0FBD1FEA0E45
:101A8000FB1ED7011196BC9002C090E3B92E6150A5
:101A900071093196C60101967C016017710724F027
:101AA000D601BC926C01D5CF6417750741F436336B
:101AB00020F4353321F4A11002C081E3B82EF601E1
:101AC000B082F701822F90E2882319F09193815020
:101AD000FBCFF701E20FF11D108280E090E0299624
:101AE0000FB6F894DEBF0FBECDBFDF91CF911F912F
:101AF0000F91FF90EF90DF90CF90BF90AF909F90AD
:101B00007F906F905F904F9008956F927F928F9229
:101B10009F92AF92BF92CF92DF92EF92FF920F937C
:101B20001F93CF93DF93EC017B016115710519F0D1
:101B3000DB018D939C938E010F5F1F4F7880872D63
:101B400090E021D2892B11F0E801F5CFBDE27B12A4
:101B500005C00F5F1F4F7980C1E008C0EBE27E1225
:101B600004C08E010E5F1F4F7980C0E06801F1E074
:101B7000CF1AD10843E050E064E371E0C6010BD214
:101B8000892BE9F4680122E0C20ED11C45E050E047
:101B90006FE271E0C601FFD1892B21F4680187E073
:101BA000C80ED11CE114F10419F0D701CD92DC92DA
:101BB000C111F9C060E070E080E89FE7FDC043E03C
:101BC00050E06CE271E0C601E6D1892B51F4E114DA
:101BD000F10409F4EDC00E5F1F4FF701118300837C
:101BE000E7C0680160E070E0CB0100E010E0F601C2
:101BF000D0EDD70DDA3050F52C2F2260622E2C2F2D
:101C00002870C2FF05C0211127C00F5F1F4F24C0DD
:101C1000222311F001501109A5E0B0E09B01AC01B5
:101C20001AD34B015C01880C991CAA1CBB1CC50172
:101C3000B4016D0F711D811D911D6839A9E97A07E5
:101C40008A07A9E19A0740F0C66005C0DE3F51F45B
:101C5000C3FD44C0C8606C2EBFEFCB1ADB0A708096
:101C6000C62DC5CF2D2F2F7D2531C1F540814D3299
:101C700011F4C06106C04B3221F0319621E030E012
:101C800006C03296D60111964C9122E030E0A0EDCC
:101C9000A40FAA3018F0E21BF30B20C040E050E084
:101CA0004038BCE05B075CF49A01220F331F220F1F
:101CB000331F420F531F440F551F4A0F511D3196BA
:101CC000DF0111972C91A0EDA20FAA3048F3C4FFB9
:101CD00003C0519541955109040F151FC1FF07C05D
:101CE000E114F10421F03197D701ED93FC937FD1FA
:101CF000C370C33019F06B017C0106C06B017C011D
:101D0000F7FAF094F7F8F09420E030E0A901C70169
:101D1000B60169D1882309F443C017FF06C01195A5
:101D200001951109CBE4D1E002C0C3E6D1E05E0128
:101D3000B8E1AB1AB1084601BE2DAF2D90E2E92EF5
:101D4000F12C0E151F057CF0FE0125913591459172
:101D50005491B4018B2F9A2FABD14B01B82FA92FDF
:101D60000E191F09EECF2497F594E794CA15DB05E9
:101D700041F76401EB2EFA2E8E2D880F8F2D881FD0
:101D80008F3F41F020E030E0A901C701B6012BD11F
:101D9000811106C082E290E090934103809340035A
:101DA000C701B60109C060E070E080E89FEF04C0A1
:101DB00060E070E080EC9FE7DF91CF911F910F9181
:101DC000FF90EF90DF90CF90BF90AF909F908F905B
:101DD0007F906F900895283008F027E03327DA01CC
:101DE000990F311D87FD916000966105710539F4E9
:101DF00032602E5F3D9330E32A95E1F708959F3FCF
:101E000030F080387105610509F03C5F3C5F3D931F
:101E1000913008F08068911DDF93CF931F930F934B
:101E2000FF92EF92192F987F9695E92F96959695A8
:101E3000E90FFF27EF53FE4F99273327EE24FF24A6
:101E4000A701E70105900894079428F4360FE71ED0
:101E5000F81E491F511D660F771F881F991F069492
:101E6000A1F70590079428F4E70EF81E491F561FA6
:101E7000C11D770F881F991F661F0694A1F7059053
:101E8000079428F4F80E491F561FC71FD11D880F4D
:101E9000991F661F771F0694A1F70590079420F4F9
:101EA000490F561FC71FD81F990F661F771F881F1E
:101EB0000694A9F784911095177041F0D695C795AF
:101EC00057954795F794E7941A95C1F7E7E6F1E03F
:101ED00068941590159135916591959105907FE2E3
:101EE0007395E118F10A430B560BC90BD009C0F7E3
:101EF000E10CF11E431F561FC91FD01D7EF4703325
:101F000011F48A95E6CFE894015030F0080F0AF4F6
:101F10000027021708F4202F2395022F7A3328F088
:101F200079E37D932A95E9F710C07D932A9589F688
:101F3000069497956795379517951794E118F10AC8
:101F4000430B560BC90BD00998F023957E917395DE
:101F50007A3308F070E37C932013B8F77E917061B8
:101F60007D9330F0839571E37D9370E32A95E1F7DB
:101F70001124EF90FF900F911F91CF91DF9199273E
:101F800087FD909508959111F6C0803219F089501F
:101F90008550D0F70895FB01DC014150504088F096
:101FA0008D9181341CF08B350CF4805E6591613429
:101FB0001CF06B350CF4605E861B611171F3990B9C
:101FC0000895881BFCCFDC01FC01672F71917723FA
:101FD000E1F7329704C07C916D9370836291AE17E4
:101FE000BF07C8F3089540D008F481E00895E8944D
:101FF00009C097FB3EF490958095709561957F4F51
:102000008F4F9F4F9923A9F0F92F96E9BB279395FE
:10201000F695879577956795B795F111F8CFFAF40E
:10202000BB0F11F460FF1BC06F5F7F4F8F4F9F4F3F
:1020300016C0882311F096E911C0772321F09EE89D
:10204000872F762F05C0662371F096E8862F70E003
:1020500060E02AF09A95660F771F881FDAF7880FDD
:102060009695879597F90895990F0008550FAA0B33
:10207000E0E8FEEF16161706E807F907C0F012169B
:102080001306E407F50798F0621B730B840B950B9E
:1020900039F40A2661F0232B242B252B21F40895F3
:1020A0000A2609F4A140A6958FEF811D811D089590
:1020B0000BD07BC06CD028F071D018F0952309F0BC
:1020C0005DC062C01124A5C081D0A0F3959FD1F35B
:1020D000950F50E0551F629FF001729FBB27F00DD6
:1020E000B11D639FAA27F00DB11DAA1F649F66272B
:1020F000B00DA11D661F829F2227B00DA11D621F7A
:10210000739FB00DA11D621F839FA00D611D221F33
:10211000749F3327A00D611D231F849F600D211D17
:10212000822F762F6A2F11249F5750408AF0E1F0BA
:1021300088234AF0EE0FFF1FBB1F661F771F881F03
:1021400091505040A9F79E3F510570F017C061C0F3
:102150005F3FECF3983EDCF3869577956795B795EE
:10216000F795E7959F5FC1F7FE2B880F911D969518
:10217000879597F9089599278827089597F99F6774
:1021800080E870E060E008959FEF80EC08950024FF
:102190000A941616170618060906089500240A94CC
:1021A00012161306140605060895092E0394000C52
:1021B00011F4882352F0BB0F40F4BF2B11F460FFE1
:1021C00004C06F5F7F4F8F4F9F4F089557FD90580A
:1021D000440F551F59F05F3F71F04795880F97FBEB
:1021E000991F61F09F3F79F08795089512161306A5
:1021F0001406551FF2CF4695F1DF08C016161706D4
:102200001806991FF1CF8695710561050894089508
:10221000E894BB2766277727CB0197F90895052E09
:1022200097FB16F400940FD057FD05D01ED007FC85
:1022300002D046F408C050954095309521953F4F07
:102240004F4F5F4F089590958095709561957F4FA2
:102250008F4F9F4F08952BD0A59F900DB49F900D49
:10226000A49F800D911D11240895A1E21A2EAA1B8E
:10227000BB1BFD010DC0AA1FBB1FEE1FFF1FA21736
:10228000B307E407F50720F0A21BB30BE40BF50B33
:10229000661F771F881F991F1A9469F760957095BC
:1022A000809590959B01AC01BD01CF010895A29F3F
:1022B000B001B39FC001A39F700D811D1124911D1A
:1022C000B29F700D811D1124911D08955058BB2798
:1022D000AA270ED06ACF5BDF30F060DF20F031F448
:1022E0009F3F11F41EF450CF0EF4E095E7FB46CF6C
:1022F000E92F6CDF80F3BA1762077307840795072D
:1023000018F071F49EF584CF0EF4E0950B2EBA2FE1
:10231000A02D0B01B90190010C01CA01A0011124EB
:10232000FF27591B99F0593F50F4503E68F11A1697
:10233000F040A22F232F342F4427585FF3CF469528
:1023400037952795A795F0405395C9F77EF41F164A
:10235000BA0B620B730B840BBAF09150A1F0FF0F14
:10236000BB1F661F771F881FC2F70EC0BA0F621F00
:10237000731F841F48F4879577956795B795F795F0
:102380009E3F08F0B3CF9395880F08F09927EE0F82
:102390009795879508950CD008CF00DF40F0F7DEC1
:1023A00030F021F45F3F19F0E9CE511132CFECCE7D
:1023B0000DDF98F39923C9F35523B1F3951B550B02
:1023C000BB27AA2762177307840738F09F5F5F4F08
:1023D000220F331F441FAA1FA9F333D00E2E3AF049
:1023E000E0E830D091505040E695001CCAF729D063
:1023F000FE2F27D0660F771F881FBB1F26173707B2
:102400004807AB07B0E809F0BB0B802DBF01FF27E1
:1024100093585F4F2AF09E3F510568F0AFCEF9CE3A
:102420005F3FECF3983EDCF3869577956795B7951B
:10243000F7959F5FC9F7880F911D9695879597F936
:102440000895E1E0660F771F881FBB1F62177307AF
:102450008407BA0720F0621B730B840BBA0BEE1FC4
:1024600088F7E095089504D06894B111D2CE08950C
:10247000B5DE88F09F5790F0B92F9927B751A0F09B
:10248000D1F0660F771F881F991F1AF0BA95C9F708
:1024900012C0B13081F0BCDEB1E00895B9CE672F33
:1024A000782F8827B85F39F0B93FCCF386957795B8
:1024B0006795B395D9F73EF49095809570956195A1
:1024C0007F4F8F4F9F4F0895EE0FFF1F881F8BBFC9
:1024D0000790F691E02D1994CF93DF938230910508
:1024E00010F482E090E0E0914403F091450320E095
:1024F00030E0C0E0D0E0309711F1408151814817C1
:102500005907C0F04817590761F4828193812097D9
:1025100019F09B838A832BC09093450380934403D7
:1025200026C02115310519F04217530718F49A01F6
:10253000BE01DF01EF010280F381E02DDCCF211528
:10254000310509F1281B390B2430310590F412961E
:102550008D919C9113976115710521F0FB01938377
:10256000828304C09093450380934403FD01329617
:1025700044C0FD01E20FF31F819391932250310972
:102580002D933C933AC02091420330914303232B77
:1025900041F42091180230911902309343032093A3
:1025A000420320911602309117022115310541F4A2
:1025B0002DB73EB740911A0250911B02241B350BD8
:1025C000E0914203F0914303E217F307A0F42E1BBE
:1025D0003F0B2817390778F0AC014E5F5F4F241787
:1025E000350748F04E0F5F1F50934303409342035B
:1025F0008193919302C0E0E0F0E0CF01DF91CF91B1
:1026000008950F931F93CF93DF93009709F48CC025
:10261000FC0132971382128200914403109145030A
:102620000115110581F420813181820F931F2091C2
:102630004203309143032817390779F5F093430398
:10264000E093420371C0D80140E050E0AE17BF07ED
:1026500050F412962D913C911397AD01211531053F
:1026600009F1D901F3CF9D01DA013383228360811F
:102670007181860F971F8217930769F4EC012881F7
:102680003981260F371F2E5F3F4F318320838A8188
:102690009B8193838283452B29F4F0934503E09338
:1026A000440342C01396FC93EE931297ED014991B7
:1026B00059919E01240F351FE217F30771F48081B1
:1026C0009181840F951F029611969C938E9382811F
:1026D000938113969C938E931297E0E0F0E0D801DB
:1026E00012968D919C911397009719F0F8018C0127
:1026F000F6CF8D919C9198012E5F3F4F820F931FD3
:1027000020914203309143032817390769F4309729
:1027100029F4109245031092440302C013821282DE
:102720001093430300934203DF91CF911F910F91C8
:1027300008956F927F928F929F92AF92BF92CF92A5
:10274000DF92EF92FF920F931F93CF93DF93EC01F1
:10275000009781F4CB01DF91CF911F910F91FF90F2
:10276000EF90DF90CF90BF90AF909F908F907F9031
:102770006F90B2CEFC01E60FF71F9C012250310989
:10278000E217F30708F4A8C0D9010D911C91119725
:1027900006171707A8F00530110508F49BC0C801FB
:1027A00004978617970708F495C002501109061B75
:1027B000170B019311936D937C93CF0122DF8AC095
:1027C0005B01A01AB10A4C01800E911EA091440336
:1027D000B091450340E050E0E12CF12C109709F452
:1027E0004AC0A815B905D1F56D907C901197630189
:1027F00082E0C80ED11CCA14DB0480F1A3014A197F
:102800005B096A0182E0C80ED11C1296BC90129737
:102810001396AC91B5E0CB16D10440F0B282A383FD
:1028200051834083D9016D937C930AC00E5F1F4F83
:10283000C301800F911FF90191838083EB2DFA2F43
:10284000E114F10431F0D7011396FC93EE93129743
:1028500041C0F0934503E09344033CC08D919C91AB
:1028600011974817590708F4AC017D0112960D9095
:10287000BC91A02DB3CF8091420390914303881562
:102880009905E1F446175707C8F480911602909114
:102890001702009741F48DB79EB740911A025091EC
:1028A0001B02841B950BE817F907B0F4F093430360
:1028B000E0934203F901718360830CC0CB010CDE0D
:1028C0007C01009749F0A801BE011BD0CE0199DE22
:1028D000C70104C0CE0102C080E090E0DF91CF913B
:1028E0001F910F91FF90EF90DF90CF90BF90AF902E
:1028F0009F908F907F906F90089581E090E0F89482
:1029000010C0FB01DC0102C001900D92415050400B
:10291000D8F70895FB01DC0101900D920020E1F74A
:062920000895F894FFCFBA
:102926000000C04000040004000400040004000489
:102936000004000400040000460380006666E63FCB
:1029460033333340333373409A9999400000C04083
:102956006666E64033330341333313413333234151
:1029660000000000D702410270021D03A1027F028F
:0829760093027B007D0A0000C2
:020000023000CC
:10E000000D9489F10D94B2F10D94B2F10D94B2F129
:10E010000D94B2F10D94B2F10D94B2F10D94B2F1F0
:10E020000D94B2F10D94B2F10D94B2F10D94B2F1E0
:10E030000D94B2F10D94B2F10D94B2F10D94B2F1D0
:10E040000D94B2F10D94B2F10D94B2F10D94B2F1C0
:10E050000D94B2F10D94B2F10D94B2F10D94B2F1B0
:10E060000D94B2F10D94B2F10D94B2F10D94B2F1A0
:10E070000D94B2F10D94B2F10D94B2F10D94B2F190
:10E080000D94B2F10D94B2F10D94B2F10D94B2F180
:10E090000D94B2F10D94B2F10D94B2F10D94B2F170
:10E0A0000D94B2F10D94B2F10D94B2F10D94B2F160
:10E0B0000D94B2F10D94B2F10D94B2F10D94B2F150
:10E0C0000D94B2F10D94B2F10D94B2F10D94B2F140
:10E0D0000D94B2F10D94B2F10D94B2F10D94B2F130
:10E0E0000D94B2F141546D656761323536300041AF
:10E0F000726475696E6F206578706C6F72657220DE
:10E1000073746B3530305632206279204D4C530099
:10E11000426F6F746C6F616465723E004875683F52
:10E1200000436F6D70696C6564206F6E203D200048
:10E130004350552054797065202020203D20005FF9
:10E140005F4156525F415243485F5F3D2000415658
:10E1500052204C696243205665723D20004743437C
:10E160002056657273696F6E203D20004350552024
:10E1700049442020202020203D20004C6F7720663D
:10E18000757365202020203D20004869676820665F
:10E190007573652020203D200045787420667573D6
:10E1A00065202020203D20004C6F636B2066757336
:10E1B000652020203D20004D617220203720323024
:10E1C000313300312E362E3800342E332E350056A2
:10E1D00023202020414444522020206F7020636F70
:10E1E00064652020202020696E73747275637469E1
:10E1F0006F6E2061646472202020496E74657272B3
:10E20000757074006E6F20766563746F7200726A49
:10E210006D702020006A6D70200057686174207056
:10E220006F72743A00506F7274206E6F7420737541
:10E2300070706F72746564004D7573742062652030
:10E2400061206C6574746572002000577269747483
:10E25000696E672045450052656164696E672045B7
:10E26000450045452065727220636E743D00504F35
:10E27000525400303D5A65726F2061646472003FF1
:10E280003D43505520737461747300403D454550C3
:10E29000524F4D207465737400423D426C696E6B41
:10E2A000204C454400453D44756D70204545505215
:10E2B0004F4D00463D44756D7020464C415348001B
:10E2C000483D48656C70004C3D4C69737420492F83
:10E2D0004F20506F72747300513D51756974005234
:10E2E0003D44756D702052414D00563D73686F7707
:10E2F00020696E7465727275707420566563746FF0
:10E30000727300593D506F727420626C696E6B00BD
:10E310002A0011241FBECFEFD1E2DEBFCDBF01E046
:10E320000CBF12E0A0E0B2E0EEE1FDEF03E00BBFB6
:10E3300002C007900D92A030B107D9F712E0A0E01B
:10E34000B2E001C01D92AE30B107E1F70F9460F367
:10E350000D948DFE01E20EBF0FEF0DBF11241FBE05
:10E360000D9460F30D9400F020E030E040ED57E0B4
:10E3700005C0FA013197F1F72F5F3F4F2817390792
:10E38000C0F308959C01260F311DC901A0E0B0E043
:10E390002F5F3F4FABBFFC018791882361F08093D3
:10E3A000C6008091C00086FFFCCF8091C0008064D1
:10E3B0008093C000EACF08958DE08093C6008091DD
:10E3C000C00086FFFCCF8091C00080648093C000B5
:10E3D0008AE08093C6008091C00086FFFCCF8091C8
:10E3E000C00080648093C00008950F94C2F10F9420
:10E3F000DCF10895FC019081992359F09093C600B7
:10E400008091C00086FFFCCF8091C0008064809323
:10E41000C0003196992379F70895282F982F929567
:10E420009F70892F805D8A3308F0895F8093C600D2
:10E430008091C00086FFFCCF8091C00080648093F3
:10E44000C000822F8F70982F905D9A3308F0995FEB
:10E450009093C6008091C00086FFFCCF8091C000E1
:10E4600080648093C00008959C01FB01853691056E
:10E470001CF46330710594F0C90164E670E00F94F8
:10E480002EFE605D7F4F6093C6008091C00086FFC6
:10E49000FCCF8091C00080648093C0002B30310598
:10E4A00014F43297B4F0C90164E670E00F942EFEC4
:10E4B0006AE070E00F942EFE605D7F4F6093C600AF
:10E4C0008091C00086FFFCCF8091C0008064809363
:10E4D000C000C9016AE070E00F942EFEC0968093E0
:10E4E000C6008091C00086FFFCCF8091C000806490
:10E4F0008093C00008951F93182F8EE692EE60E07F
:10E500000F94C2F11093C6008091C00086FFFCCF2B
:10E510008091C00080648093C0000F94DCF11F9153
:10E5200008952F923F924F925F926F927F928F92B7
:10E530009F92AF92BF92CF92DF92EF92FF920F9392
:10E540001F93DF93CF93CDB7DEB762970FB6F894E2
:10E55000DEBF0FBECDBF382E622ECA01DB015C01CB
:10E560006D01772420E2222E2E010894411C511CBB
:10E570008BC081E0A81680E0B80681E0C80680E084
:10E58000D80628F0C601AA27BB270F940DF2BB2797
:10E59000AD2D9C2D8B2D0F940DF28A2D0F940DF225
:10E5A0002092C6008091C00086FFFCCF8091C00001
:10E5B00080648093C0009DE29093C6008091C0006B
:10E5C00086FFFCCF8091C00080648093C0002092C1
:10E5D000C6008091C00086FFFCCF8091C00080649F
:10E5E0008093C00019828601750188249924A1E0D6
:10E5F0003A1651F03A1620F0B2E03B1661F409C029
:10E600000BBFF701779007C0C7010F9477FE782EF4
:10E6100002C0F7017080872D0F940DF22092C60082
:10E620008091C00086FFFCCF8091C0008064809301
:10E63000C000872D8052F401EF70F0708F3520F408
:10E64000E40DF51D708204C0E40DF51D8EE280839B
:10E650000894E11CF11C011D111D0894811C911CE2
:10E6600090E18916910409F0C2CF80E190E0A0E02A
:10E67000B0E0A80EB91ECA1EDB1E198AC2010F9493
:10E68000FAF10F94DCF16A94662009F072CF629679
:10E690000FB6F894DEBF0FBECDBFCF91DF911F91B3
:10E6A0000F91FF90EF90DF90CF90BF90AF909F9031
:10E6B0008F907F906F905F904F903F902F90089534
:10E6C0002F923F924F925F926F927F928F929F9282
:10E6D000AF92BF92CF92DF92EF92FF920F931F9370
:10E6E000DF93CF93CDB7DEB7CD53D1400FB6F894BB
:10E6F000DEBF0FBECDBF01E20EBF0FEF0DBF94B75F
:10E70000F894A89514BE80916000886180936000A1
:10E7100010926000789493FF05C0E0910002F091A0
:10E7200001021995279A2F9A8091C00082608093E8
:10E73000C00080E18093C40088E18093C1000000A4
:10E74000EE24FF24870144E0A42EB12CCC24DD2448
:10E7500024C0C5010197F1F70894E11CF11C011DCB
:10E76000111D21E2E2162EE4F20620E0020720E06D
:10E77000120718F031E0C32ED12CC801B70127ECE5
:10E780003BE140E050E00F9441FE611571058105C9
:10E79000910519F485B1805885B98091C00087FD35
:10E7A00003C0C114D104A9F2A6014F5F5F4FC25E3E
:10E7B000DE4F59834883CE51D140C25EDE4F8881FF
:10E7C0009981CE51D140019711F00D9410FEC05D9A
:10E7D000DE4F19821882C053D14060E0C15DDE4F28
:10E7E0001882CF52D14088249924C35DDE4F19820C
:10E7F0001882CD52D140C05EDE4F188219821A8233
:10E800001B82C052D140CE5CDE4F188219821A8220
:10E810001B82C253D140EE24FF2487010BBFF701B6
:10E8200007911691C45CDE4F19830883CC53D14005
:10E830000D940BFEC25EDE4F28813981CE51D1404E
:10E840002130310509F52091C600C25EDE4F1982E4
:10E850001882CE51D14022C02F5F3F4F4F4F5F4FA4
:10E86000213082E138078AE7480780E0580780F0C6
:10E87000C45CDE4FE881F981CC53D140EF5FFF4F9C
:10E8800019F0EE27FF27099420E030E040E050E047
:10E890008091C00087FFE0CF2091C600C35DDE4FAE
:10E8A00048815981CD52D1404F5F5F4FC35DDE4FEC
:10E8B00059834883CD52D140213209F063C64A3092
:10E8C000510508F05FC60894811C911C53E0851621
:10E8D000910409F059C600E010E018C081E280936D
:10E8E000C6008091C00086FFFCCF8091C00080648C
:10E8F0008093C0002F5F3F4F2931310579F70F9486
:10E90000DCF10F5F1F4F0530110519F020E030E0FA
:10E91000E5CF10920A0210920B0210920C02109294
:10E920000D02109206021092070210920802109235
:10E930000902109202021092030210920402109235
:10E9400005028FEE90EE60E00F94F5F180E191EE1C
:10E9500060E00F94C2F18091C00087FFFCCF9091DE
:10E96000C600903608F09F759032B8F09093C600BC
:10E970008091C00086FFFCCF8091C00080648093AE
:10E98000C000A0E2A093C6008091C00086FFFCCF2B
:10E990008091C00080648093C000983409F4D7C18E
:10E9A0009934B8F4923409F459C1933458F490333B
:10E9B00019F1903308F4E3C59F33A1F1903409F0C5
:10E9C000DEC5BDC0953409F470C1963409F0D7C5D1
:10E9D00098C1923509F42BC2933538F49C3409F46C
:10E9E000F5C1913509F0CBC518C2963509F445C279
:10E9F000993509F0C4C567C483E792EE62E00F94CD
:10EA0000F5F110920602109207021092080210927D
:10EA1000090210920A0210920B0210920C0210923C
:10EA20000D0213C18FE792EE62E00F94F5F18FEEC5
:10EA300090EE60E00F94F5F181E291EE60E00F94CA
:10EA4000C2F187EB91EE60E00F94F5F180E391EE77
:10EA500060E00F94C2F184EE90EE60E00F94F5F167
:10EA60008FE391EE60E00F94C2F186E090E061E008
:10EA700070E00F9434F20F94DCF18DE591EE60E0DC
:10EA80000F94C2F189EC91EE60E00F94F5F18EE401
:10EA900091EE60E00F94C2F183EC91EE60E00F9490
:10EAA000F5F18CE691EE60E00F94C2F18EE10F94E7
:10EAB0000DF288E90F940DF281E00F940DF20F949E
:10EAC000DCF18BE791EE60E00F94C2F119E0E0E039
:10EAD000F0E010935700E4918E2F0F940DF20F94F5
:10EAE000DCF18AE891EE60E00F94C2F1E3E0F0E03F
:10EAF00010935700E4918E2F0F940DF20F94DCF1D8
:10EB000089E991EE60E00F94C2F1E2E0F0E0109349
:10EB10005700E4918E2F0F940DF20F94DCF188EAE8
:10EB200091EE60E00F94C2F1E1E0F0E01093570045
:10EB30001491812F0F940DF20F94DCF107CF8BE825
:10EB400092EE62E00F94F5F18BE492EE60E00F94A8
:10EB5000F5F10F94DCF100E010E019C0C8016F2D51
:10EB60000F947FFEFF2031F489E492EE60E00F9471
:10EB7000C2F10BC0F092C6008091C00086FFFCCFAE
:10EB80008091C00080648093C0000F5F1F4FC80158
:10EB900081519F41A0E0B0E0ABBFFC01F790BAE229
:10EBA000FB1621F0E2E000301E07C1F60F94DCF105
:10EBB0000F94DCF187E592EE60E00F94F5F10F948D
:10EBC000DCF1CC24DD2400E010E01EC0C8010F946D
:10EBD00077FEF82E882331F489E492EE60E00F94FA
:10EBE000C2F10BC08093C6008091C00086FFFCCFAD
:10EBF0008091C00080648093C000FE1419F00894D6
:10EC0000C11CD11C0F5F1F4FC80181519F41A0E063
:10EC1000B0E0ABBFFC01E790FAE2EF1621F022E092
:10EC20000030120799F60F94DCF10F94DCF182E6C4
:10EC300092EE60E00F94C2F1C60161E070E00F94C3
:10EC400034F20F94DCF10F94DCF110920202109276
:10EC50000302109204021092050278CE89E992EE26
:10EC600062E00F94F5F1279A2F9A16C02F9880E052
:10EC700090E0E0EDF7E03197F1F7019684369105E9
:10EC8000C1F72F9A80E090E0E0EDF7E03197F1F7DF
:10EC9000019684369105C1F78091C00087FFE6CFC9
:10ECA0008091C00087FFFCCF64C485EA92EE62E0E9
:10ECB0000F94F5F140910202509103026091040219
:10ECC0007091050281E020E10F9491F2809102029F
:10ECD00090910302A0910402B091050280509F4FD1
:10ECE000AF4FBF4F8093020290930302A0930402A0
:10ECF000B093050280509041A040B04008F426CE69
:10ED0000A4CF83EB92EE62E00F94F5F140910602FE
:10ED100050910702609108027091090280E020E1A1
:10ED20000F9491F28091060290910702A09108023F
:10ED3000B091090280509F4FAF4FBF4F80930602A2
:10ED400090930702A0930802B0930902FFCD80ECD4
:10ED500092EE62E00F94F5F183E792EE60E00F949B
:10ED6000F5F18FE792EE60E00F94F5F18BE892EE0B
:10ED700060E00F94F5F189E992EE60E00F94F5F10F
:10ED800085EA92EE60E00F94F5F183EB92EE60E09D
:10ED90000F94F5F180EC92EE60E00F94F5F187ECC2
:10EDA00092EE60E00F94F5F188ED92EE60E00F9442
:10EDB000F5F18FED92EE60E00F94F5F18AEE92EEB0
:10EDC00060E00F94F5F183E093EEBDCD87EC92EE19
:10EDD00062E00F94F5F181E40F947BF282E40F94EA
:10EDE0007BF283E40F947BF284E40F947BF285E45E
:10EDF0000F947BF286E40F947BF287E40F947BF20E
:10EE000088E40F947BF28AE40F947BF28BE40F94F6
:10EE10007BF28CE40F947BF299CD88ED92EE62E068
:10EE20000F94F5F1772473948824992409C48FED05
:10EE300092EE62E00F94F5F140910A0250910B02BC
:10EE400060910C0270910D0282E020E10F9491F22A
:10EE500080910A0290910B02A0910C02B0910D02D8
:10EE600080509F4FAF4FBF4F80930A0290930B0289
:10EE7000A0930C02B0930D0269CD8AEE92EE62E08F
:10EE80000F94F5F184EE90EE60E00F94F5F18FECC5
:10EE900091EE60E00F94F5F1662477244301CC5D98
:10EEA000DE4F19821882C452D140D401C301B695F5
:10EEB000A79597958795CA5DDE4F88839983AA8326
:10EEC000BB83C652D140CC5DDE4FA881B981C4520C
:10EED000D1401196CC5DDE4FB983A883C452D14096
:10EEE000CD0162E070E00F9434F2B0E2B093C6005E
:10EEF0008091C00086FFFCCF8091C0008064809329
:10EF0000C000EDE2E093C6008091C00086FFFCCF18
:10EF10008091C00080648093C000F0E2F093C6004E
:10EF20008091C00086FFFCCF8091C00080648093F8
:10EF3000C000CA5DDE4FE880F9800A811B81C6529D
:10EF4000D140BB27A12F902F8F2D0F940DF2CA5DBA
:10EF5000DE4F8881C652D1400F940DF2B0E2FB2EF5
:10EF6000F092C6008091C00086FFFCCF8091C00067
:10EF700080648093C0000DE30093C6008091C000C0
:10EF800086FFFCCF8091C00080648093C00010E2B7
:10EF90001093C6008091C00086FFFCCF8091C00016
:10EFA00080648093C0008BBEF3012791C65DDE4F65
:10EFB0002883CA52D140A22EBB24CC24DD2408943D
:10EFC000611C711C811C911C8BBEF3018791282E42
:10EFD0003324442455240894611C711C811C911C09
:10EFE0008BBEF3013791C55DDE4F3883CB52D140E4
:10EFF0000894611C711C811C911C8BBEF30147910C
:10F00000C45DDE4F4883CC52D140ADEFEA2EAFEF66
:10F01000FA2EAFEF0A2FAFEF1A2F6E0C7F1C801E57
:10F02000911E142D032DF22CEE24EA0CFB1C0C1D5A
:10F030001D1D0F940DF220E22093C6008091C000A8
:10F0400086FFFCCF8091C00080648093C000C65DC5
:10F05000DE4F8881CA52D1400F940DF230E23093D6
:10F06000C6008091C00086FFFCCF8091C000806404
:10F070008093C000C45DDE4F8881CC52D1400F9494
:10F080000DF240E24093C6008091C00086FFFCCFA5
:10F090008091C00080648093C000C55DDE4F888190
:10F0A000CB52D1400F940DF250E25093C6008091A4
:10F0B000C00086FFFCCF8091C00080648093C000B8
:10F0C0008FEFE8168FEFF80680E0080780E018075A
:10F0D00031F484E092EE60E00F94C2F1DFC0D80119
:10F0E000C7018070907CA070B0708050904CA040A0
:10F0F000B040D1F52FEF3FE340E050E0E222F322B1
:10F1000004231523CA5DDE4FA880B980CA80DB8046
:10F11000C652D140AE0CBF1CC01ED11EAA0CBB1CD7
:10F12000CC1CDD1C8EE092EE60E00F94C2F1BB2798
:10F13000A12F902F8F2D0F940DF28E2D0F940DF285
:10F1400030E23093C6008091C00086FFFCCF8091F2
:10F15000C00080648093C0004EE34093C60080915D
:10F16000C00086FFFCCF87C08EE09EEFA0E0B0E03D
:10F17000E822F9220A231B239CE0E91694E9F90608
:10F1800090E0090790E0190709F088C0C45DDE4FE0
:10F19000A881CC52D140EA2EFF2400E010E0102FCD
:10F1A0000F2DFE2CEE24C55DDE4FB881CB52D14031
:10F1B000EB0EF11C011D111DD601C501817090706F
:10F1C000A070B070DC0199278827E80EF91E0A1F8D
:10F1D0001B1F20EF30E040E050E0A222B322C42207
:10F1E000D52241E1AA0CBB1CCC1CDD1C4A95D1F7F1
:10F1F000EA0CFB1C0C1D1D1D81E090E0A0E0B0E0BE
:10F20000282239224A225B2235E1220C331C441C7D
:10F21000551C3A95D1F7E20CF31C041D151D57013E
:10F220006801AA0CBB1CCC1CDD1C85E192EE60E0E1
:10F230000F94C2F1C801AA27BB270F940DF2BB2778
:10F24000A12F902F8F2D0F940DF28E2D0F940DF274
:10F2500090E29093C6008091C00086FFFCCF809121
:10F26000C00080648093C000AEE3A093C60080918C
:10F27000C00086FFFCCF8091C00080648093C000F6
:10F28000C601AA27BB270F940DF2BB27AD2D9C2DDD
:10F290008B2D0F940DF28A2D0F940DF20F94DCF14B
:10F2A000CC5DDE4FE881F981C452D140F99709F471
:10F2B0004DCBF4E0EF2EF12C012D112D6E0C7F1CA7
:10F2C000801E911EF2CD83E093EE62E00F94F5F183
:10F2D0008AE192EE60E00F94C2F18091C00087FF56
:10F2E000FCCF1091C6001F751093C6008091C0001E
:10F2F00086FFFCCF8091C00080648093C0000F9493
:10F30000DCF1812F81548A3108F036C1163409F4BA
:10F3100095C0173490F4133409F44EC0143430F40B
:10F320001134F1F0123409F01DC130C0143409F465
:10F3300059C0153409F016C16BC01A3409F4C4C0A1
:10F340001B3438F4173409F48FC0183409F00AC19B
:10F35000A1C01B3409F4D2C01C3409F003C1E8C0B9
:10F360008FEF81B90DC082B1809582B980E090E0C5
:10F37000E0EDF7E03197F1F70196883C9105C1F790
:10F380008091C00087FFEFCF12B8EFC08FEF84B934
:10F390000DC085B1809585B980E090E0E0EDF7E0A3
:10F3A0003197F1F70196883C9105C1F78091C00033
:10F3B00087FFEFCF15B8D9C08FEF87B90DC088B1DF
:10F3C000809588B980E090E0E0EDF7E03197F1F7C3
:10F3D0000196883C9105C1F78091C00087FFEFCF6F
:10F3E00018B8C3C08FEF8AB90DC08BB180958BB9A7
:10F3F00080E090E0E0EDF7E03197F1F70196883C8E
:10F400009105C1F78091C00087FFEFCF1BB8ADC059
:10F410008FEF8DB90DC08EB180958EB980E090E0F0
:10F42000E0EDF7E03197F1F70196883C9105C1F7DF
:10F430008091C00087FFEFCF1EB897C08FEF80BBD1
:10F440000DC081B3809581BB80E090E0E0EDF7E0F6
:10F450003197F1F70196883C9105C1F78091C00082
:10F4600087FFEFCF11BA81C08FEF83BB0DC084B38C
:10F47000809584BB80E090E0E0EDF7E03197F1F714
:10F480000196883C9105C1F78091C00087FFEFCFBE
:10F4900014BA6BC08FEF809301010FC080910201FD
:10F4A00080958093020180E090E0E0EDF7E03197F5
:10F4B000F1F70196883C9105C1F78091C00087FF64
:10F4C000EDCF1092020151C08FEF809304010FC065
:10F4D0008091050180958093050180E090E0E0ED4A
:10F4E000F7E03197F1F70196883C9105C1F78091DB
:10F4F000C00087FFEDCF1092050137C08FEF8093DA
:10F5000007010FC08091080180958093080180E079
:10F5100090E0E0EDF7E03197F1F70196883C910536
:10F52000C1F78091C00087FFEDCF109208011DC088
:10F530008FEF80930A010FC080910B01809580931B
:10F540000B0180E090E0E0EDF7E03197F1F70196F4
:10F55000883C9105C1F78091C00087FFEDCF1092E4
:10F560000B0103C085E292EEEEC98091C00087FFD7
:10F57000FCCF8091C600EAC988E392EEE4C98CE131
:10F5800091EEE1C988249924933011F1943028F444
:10F59000913089F09230B8F408C0953061F195301F
:10F5A000F0F0963009F048C043C02B3109F042C951
:10F5B00091E06BE13FC96227C15DDE4F2883CF52E6
:10F5C000D14092E037C9B22FA0E0622793E032C960
:10F5D000822F90E0A82BB92B622794E02BC92E3004
:10F5E00009F039C3622795E0C05DDE4F19821882A9
:10F5F000C053D1401FC9E1E0F0E0EC0FFD1FC05D3A
:10F60000DE4F08811981C053D140E00FF11F2083E4
:10F610000F5F1F4FC05DDE4F19830883C053D14079
:10F6200062270A171B0709F005C9D80196E002C92D
:10F63000261709F010C303C0973009F0FBC87724E0
:10F640009981933109F412C19431C8F4963009F4C8
:10F65000D8C0973050F4923009F406C1933009F4C1
:10F660006DC0913009F059C253C0913109F477C08F
:10F67000923108F0BBC0903109F04FC2F5C098310B
:10F6800009F487C0993150F4953109F4EFC09531F0
:10F6900008F4C6C1963109F040C2C2C19A3109F4DA
:10F6A0006CC09A3108F491C09B3109F45BC09D3164
:10F6B00009F033C29D81903359F48F81882311F46E
:10F6C0009EE11CC0813011F091E018C098E916C08D
:10F6D000892F807591F0903539F4E0E0F0E089E011
:10F6E0008093570094910AC0983539F4E3E0F0E034
:10F6F00089E080935700949101C090E01A821B82A8
:10F700008D818C831D829E831F8227E030E009C299
:10F710001A8288E08B8381E48C8386E58D8382E581
:10F720008E8389E48F8383E5888780E589878FE5E9
:10F730008A8782E38B872BE030E0F3C18A818139AD
:10F7400041F0823941F0803911F48FE005C080E04A
:10F7500003C082E001C08AE01A828B8344C0772410
:10F76000739482C08D81882311F48EE12CC0813086
:10F7700011F081E028C088E926C01A82E1E0F0E0BB
:10F7800089E08093570084918B831C8224E030E0D1
:10F79000C8C18B81803589F48C81883039F4E2E0EE
:10F7A000F0E089E08093570084910DC0E0E0F0E044
:10F7B00089E080935700849106C0E3E0F0E089E09F
:10F7C0008093570084911A82DFCF8D81836C99E0FA
:10F7D000E1E0F0E0082E90935700E89507B600FCB2
:10F7E000FDCF1A821B8223E030E09BC180EC8A832C
:10F7F000CE5CDE4F188219821A821B82C253D1401E
:10F800008EC18A8190E0A0E0B0E0582F44273327D2
:10F8100022278B8190E0A0E0B0E0DC0199278827C7
:10F82000282B392B4A2B5B2B8D8190E0A0E0B0E098
:10F83000282B392B4A2B5B2B8C8190E0A0E0B0E089
:10F84000BA2FA92F982F8827282B392B4A2B5B2BCF
:10F85000220F331F441F551FC05EDE4F288339839C
:10F860004A835B83C052D1401A8259C13A81C95C34
:10F87000DE4F3883C753D140CA5CDE4F1882C6536F
:10F88000D1408B81C82EDD24CA5CDE4F488159816E
:10F89000C653D140C42AD52A933109F082C0CE5C28
:10F8A000DE4F88819981AA81BB81C253D1408050AB
:10F8B000904CA340B04030F583E0CE5CDE4FE88052
:10F8C000F9800A811B81C253D140F70100935B008C
:10F8D00080935700E89507B600FCFDCFCE5CDE4F65
:10F8E000088119812A813B81C253D14000501F4FAA
:10F8F0002F4F3F4FCE5CDE4F088319832A833B8313
:10F90000C253D140C05EDE4F488159816A817B81FC
:10F91000C052D140DE011B9631E08C9111962C91A2
:10F9200011971296C75CDE4F2883C953D140C85C3B
:10F93000DE4F1882C853D14090E0C85CDE4FE881AA
:10F94000F981C853D1408E2B9F2B0C01FA01609393
:10F950005B0030935700E89511244E5F5F4F6F4F67
:10F960007F4F0EEFE02E0FEFF02ECE0CDF1CC114F8
:10F97000D10499F685E0C05EDE4F088119812A81A5
:10F980003B81C052D140F80120935B008093570027
:10F99000E89507B600FCFDCF81E180935700E8951C
:10F9A00035C0C05EDE4F88819981AA81BB81C0527B
:10F9B000D140B695A795979587957C018601ABE0D8
:10F9C000AA2EB12CAC0EBD1E0BC0D5016D915D01F0
:10F9D000C7010F947FFE0894E11CF11C01501040F8
:10F9E0000115110591F7A60160E070E0440F551F65
:10F9F000661F771FC05EDE4FE880F9800A811B8199
:10FA0000C052D1404E0D5F1D601F711F1A82C05E33
:10FA1000DE4F488359836A837B83C052D1407FC0C5
:10FA2000FA80C55CDE4FF882CB53D140C65CDE4F16
:10FA30001882CA53D1408B81C82EDD24C65CDE4FAC
:10FA400008811981CA53D140C02AD12A1A828981DA
:10FA5000BE016D5F7F4F843121F59601C05EDE4FA0
:10FA6000E880F9800A811B81C052D1400BBFF701A9
:10FA700087919691DB018C9311969C936E5F7F4FDB
:10FA8000D801C7010296A11DB11DC05EDE4F88835B
:10FA90009983AA83BB83C052D14022503040F1F6F3
:10FAA00036C0C05EDE4F288139814A815B81C052F9
:10FAB000D1400894C108D108760100E010E0089414
:10FAC000C11CD11C0894E11CF11C011D111DE20E8A
:10FAD000F31E041F151F21BDBB27A52F942F832FB5
:10FAE00082BD2F5F3F4F4F4F5F4FF89A80B5DB01CC
:10FAF0008D93BD012E153F054007510761F7C05E8C
:10FB0000DE4F288339834A835B83C052D1409601FC
:10FB10002D5F3F4FFB01108204C080EC8A8322E0FE
:10FB200030E08BE18093C6008091C00086FFFCCF5F
:10FB30008091C00080648093C000C15DDE4FF88179
:10FB4000CF52D140F093C6008091C00086FFFCCF19
:10FB50008091C00080648093C000432F3093C60022
:10FB60008091C00086FFFCCF8091C00080648093AC
:10FB7000C000922F2093C6008091C00086FFFCCF6A
:10FB80008091C00080648093C0008EE08093C600A6
:10FB90008091C00086FFFCCF8091C000806480937C
:10FBA000C00065E1C15DDE4FE880CF52D1406E25D7
:10FBB00069276427FE01319610C090819093C6009A
:10FBC0008091C00086FFFCCF31968091C000806498
:10FBD0008093C0006927215030402115310569F715
:10FBE0006093C6008091C00086FFFCCF8091C0006A
:10FBF00080648093C00085B1805885B9772081F4F6
:10FC0000C15DDE4F0881CF52D1400F5FC15DDE4F35
:10FC10000883CF52D14090E0A0E0B0E00D941AF4F8
:10FC200027982F9880E090E020ED37E0F901319798
:10FC3000F1F7019684369105C9F700008091C00064
:10FC40008D7F8093C00081E180935700E895EE2777
:10FC5000FF270994FFCF90E00D941AF497FB092E2B
:10FC600007260AD077FD04D02ED006D000201AF443
:10FC7000709561957F4F0895F6F7909581959F4F08
:10FC80000895A1E21A2EAA1BBB1BFD010DC0AA1FDD
:10FC9000BB1FEE1FFF1FA217B307E407F50720F0F5
:10FCA000A21BB30BE40BF50B661F771F881F991F70
:10FCB0001A9469F760957095809590959B01AC01B9
:10FCC000BD01CF010895AA1BBB1B51E107C0AA1FAC
:10FCD000BB1FA617B70710F0A61BB70B881F991FED
:10FCE0005A95A9F780959095BC01CD010895F99991
:10FCF000FECF92BD81BDF89A992780B50895262F31
:10FD0000F999FECF1FBA92BD81BD20BD0FB6F89400
:0EFD1000FA9AF99A0FBE01960895F894FFCF63
:040000033000E000E9
:00000001FF
