:10000000EBC1000019C2000017C2000015C20000B9
:1000100013C2000011C200000FC200000DC2000098
:100020000BC2000009C2000007C2000005C20000A8
:1000300003C2000001C20000FFC10000FDC10000BA
:10004000FBC10000F9C10000F7C10000F5C10000CC
:10005000F3C10000F1C10000EFC1000067C600005D
:10006000EBC10000E9C10000E7C10000E5C10000EC
:10007000E3C10000E1C10000DFC10000DDC10000FC
:10008000C5C70000D9C10000D7C10000D5C100001C
:1000900017C60000ECC50000CFC10000CDC10000B4
:1000A000CBC10000C9C100008BC60000C5C1000063
:1000B000C3C10000C1C10000BFC10000BDC100003C
:1000C000BBC10000B9C10000B7C10000B5C100004C
:1000D000B3C10000B1C10000AFC10000ADC100005C
:1000E000ABC10000E603E903D803DC03E00320040E
:1000F000ED03F103F703FB03FF03050409040D04FB
:100100002004130417041B045A045F0464046E04DF
:100110007804F10482048A0492049C04A604B004C6
:10012000BF04C904F104D304DD04E7044E414E4981
:100130004E495459494E46CDCCCC3D0AD7233C17A5
:10014000B7D13877CC2B329595E6241FB14F0A00F2
:100150000020410000C84200401C4620BCBE4CCAE2
:100160001B0E5AAEC59D7400407A10F35A00A0725F
:100170004E18090010A5D4E80000E87648170000E2
:10018000E40B54020000CA9A3B000000E1F50500B0
:100190000080969800000040420F000000A08601F9
:1001A000000000102700000000E8030000000064C9
:1001B00000000000000A0000000000010000000034
:1001C000002C76D888DC674F0823DFC1DFAE59E109
:1001D000B1B796E5E3E453C63AE651997696E8E678
:1001E000C28426EB898C9B62ED407C6FFCEFBC9C4B
:1001F0009F40F2BAA56FA5F490055A2AF75C936B5D
:100200006CF9676DC11BFCE0E40D47FEF520E6B517
:1002100000D0ED902E0300943577050080841E08F1
:100220000000204E0A000000C80C333333330F980F
:100230006E12831141EF8D2114893BE65516CFFED6
:10024000E6DB18D1844B381BF77C1D901DA4BBE462
:1002500024203284725E228100C9F124ECA1E53DA4
:10026000272C225338223A002C225337223A002CD2
:10027000225336223A002C225335223A002C2253A4
:1002800034223A002C225333223A002C22533222B9
:100290003A002C225331223A002C225330223A00C9
:1002A0002C224544223A002C224549223A002C2295
:1002B0004550223A0022504F53223A002C224B4400
:1002C000223A002C224B49223A00224B50223A007B
:1002D00000000A0B02090C0D0E08070304010000C0
:1002E000000000000000000000000000000000000E
:1002F00000000000000000000000000012111000CB
:1003000000000000000000000000000000000000ED
:1003100000000000000000002200250028002B0043
:100320002E003100340002010000050108010B011C
:1003300000002100240027002A002D003000330097
:1003400001010000040107010A0105050505070573
:1003500008080808020202020A0A08080404040441
:10036000010101010101010103030303030303036D
:10037000040707070C0C0C0C0C0C0C0C02020202FC
:1003800006060606060606060B0B0B0B0B0B0B0BE5
:100390000102102020080810204010204080020197
:1003A000020108040201010204081020408080407C
:1003B000201008040201800402018040201008047B
:1003C0000201080402010102040810204080010219
:1003D0000408102040802B0B11241FBECFEFD1E268
:1003E000DEBFCDBF00E00CBF12E0A0E0B2E0E0E96C
:1003F000F8E200E00BBF02C007900D92AA35B107EA
:10040000D9F723E0AAE5B2E001C01D92A534B207F6
:10041000E1F711E0CCEED1E000E006C02197010940
:10042000802FFE010E941912CB3ED10780E0080701
:10043000A9F738D70C944614E3CD2FB7F8948091E0
:100440009E0290919F02A091A002B091A1022FBFA5
:100450008093AA029093AB02A093AC02B093AD023A
:10046000E091A202F091A3020284F385E02D82EADA
:1004700092E0199597FF26C02FB7F89480919E02BD
:1004800090919F02A091A002B091A1022FBF409134
:10049000AA025091AB026091AC027091AD02841B34
:1004A000950BA60BB70B4091A6025091A702609145
:1004B000A8027091A90284179507A607B70780F2D2
:1004C0008FEF9FEF089590E0FC01E057FC4F2491DF
:1004D000FC01E65BFC4F8491882399F090E0880F43
:1004E000991FFC01E05DFC4FA591B491FC01EA5E0F
:1004F000FC4F859194918FB7F894EC91E22BEC939B
:100500008FBF0895CF92DF92EF92FF920F931F93C8
:10051000CF93DF936C017A018B01C0E0D0E0CE1560
:10052000DF0589F0D8016D918D01D601ED91FC9127
:100530000190F081E02DC6011995892B11F47E01FF
:1005400002C02196ECCFC701DF91CF911F910F918F
:10055000FF90EF90DF90CF900895089580E090E0B5
:100560000895FC01538D448D252F30E0842F90E0B9
:10057000821B930B541710F0CF960895019708959E
:10058000FC01918D828D981761F0828DDF01A80F9B
:10059000B11D5D968C91928D9F5F9F73928F90E0BD
:1005A00008958FEF9FEF0895FC01918D828D98172C
:1005B00031F0828DE80FF11D858D90E008958FEF69
:1005C0009FEF0895FC01918D228D892F90E0805C32
:1005D0009F4F821B91098F739927089582EA92E0B9
:1005E000F1DF21E0892B09F420E0822F0895FC013E
:1005F000848DDF01A80FB11DA35ABF4F2C91848DAC
:1006000090E001968F739927848FA689B7892C93E0
:10061000A089B1898C9180648C93938D848D98137B
:1006200006C00288F389E02D80818F7D8083089544
:10063000EF92FF920F931F93CF93DF93EC0181E032
:10064000888F9B8D8C8D981305C0E889F9898081EE
:1006500085FD23C0F62E0B8D10E00F5F1F4F0F732B
:100660001127E02E8C8DE8120BC00FB607FCFACFD5
:10067000E889F989808185FFF5CFCE01B8DFF2CF17
:100680008B8DFE01E80FF11DE35AFF4FF0820B8FB7
:10069000EA89FB898081806207C0EE89FF896083D7
:1006A000E889F98980818064808381E090E0DF912E
:1006B000CF911F910F91FF90EF900895CF93DF930B
:1006C000EC01888D8823C1F0EA89FB89808185FD52
:1006D00005C0A889B9898C9186FD0EC00FB607FCAC
:1006E000F5CF808185FFF2CFA889B9898C9185FFEC
:1006F000EDCFCE017CDFE8CFDF91CF91089580E090
:1007000090E0892B41F080E090E0892B21F00E945D
:100710000000811120C080E090E0892B19F05EDF9D
:1007200081111CC080E090E0892B41F080E090E0D6
:10073000892B21F00E940000811113C080E090E01D
:10074000892BA1F080E090E0892B81F00E940000CD
:1007500081110AC008950E940000DDCF0E940000B0
:10076000E1CF0E940000EACF0C9400000895362FDC
:1007700090E0FC01E053FD4F4491FC01E057FC4F39
:100780002491FC01E65BFC4F9491992309F46BC022
:10079000442309F455C050E0FA013197E231F105E4
:1007A00008F04EC08827EE58FF4F8F4F0C94191257
:1007B000809180008F7707C0809180008F7D03C07B
:1007C00080918000877F809380003AC084B58F77C6
:1007D00002C084B58F7D84BD33C08091B0008F7717
:1007E00003C08091B0008F7D8093B00029C08091BC
:1007F00090008F7707C0809190008F7D03C080911B
:100800009000877F809390001BC08091A0008F771D
:1008100007C08091A0008F7D03C08091A000877FDA
:100820008093A0000DC0809120018F7707C0809138
:1008300020018F7D03C080912001877F809320015C
:10084000E92FF0E0EE0FFF1FEA5EFC4FA591B49197
:100850008FB7F894EC91311103C020952E2301C07D
:100860002E2B2C938FBF08951F93CF93DF93182FB8
:10087000EB0129DE209711F460E004C0CF3FD105E1
:1008800031F461E0812FDF91CF911F9170CFE12F83
:10089000F0E0E053FD4FE4914E2F50E0FA01319724
:1008A000E231F10508F09DC08827EC57FF4F8F4FCC
:1008B0000C94191284B5806884BDC7BD97C084B5F7
:1008C000806284BDC8BD92C08091800080688093A2
:1008D0008000D0938900C093880088C080918000F8
:1008E000806280938000D0938B00C0938A007EC08A
:1008F00080918000886080938000D0938D00C093A9
:100900008C0074C08091B00080688093B000C09368
:10091000B3006CC08091B00080628093B000C0933F
:10092000B40064C080919000806880939000D09360
:100930009900C09398005AC0809190008062809383
:100940009000D0939B00C0939A0050C0809190007B
:10095000886080939000D0939D00C0939C0046C017
:100960008091A00080688093A0008091A0008F7B80
:100970008093A000D093A900C093A80037C08091B5
:10098000A00080628093A000D093AB00C093AA0027
:100990002DC08091A00088608093A000D093AD000E
:1009A000C093AC0023C08091200180688093200117
:1009B000D0932901C093280119C080912001806241
:1009C00080932001D0932B01C0932A010FC0809106
:1009D0002001886080932001D0932D01C0932C01C9
:1009E00005C0C038D1050CF04CCF46CFDF91CF9178
:1009F0001F910895863308F0865390917B00282F2D
:100A00002870977F922B90937B00877080648093EF
:100A10007C0080917A00806480937A0080917A00D3
:100A200086FDFCCF809178002091790090E0922B98
:100A300008950E9432140F931F93CF93DF93EC011C
:100A400088819981009729F02A813B8126173707F1
:100A500088F48B016F5F7F4F0E944E13009761F007
:100A6000998388831B830A832C813D81232B11F476
:100A7000FC01108281E001C080E0DF91CF911F91E5
:100A80000F910895EF92FF920F931F93CF93DF93EF
:100A90006115710511F480E01BC08B01EC01CB01E5
:100AA00030D60097A1F02C813D817C01E20EF31E2F
:100AB000B701CE01C0DF882371F3288139818C8191
:100AC0009D81B801820F931F15D6FD82EC8281E0D3
:100AD000DF91CF911F910F91FF90EF900895EF92CA
:100AE000FF920F931F93CF93DF93FC0124813581F5
:100AF0006115710511F480E018C041155105A1F090
:100B00007B01EC018A01020F131FB80194DF8823D7
:100B100091F3288139818C819D81B701820F931FC8
:100B20000E943F141D830C8381E0DF91CF911F91C0
:100B30000F91FF90EF900895EF92FF920F931F9304
:100B4000CF93DF93CDB7DEB764970FB6F894DEBFCF
:100B50000FBECDBF7C01CB01BA018E010F5F1F4FCD
:100B600022E044E0A5D5BC01FC0101900020E9F79A
:100B70003197AF01481B590BC701B1DF64960FB61F
:100B8000F894DEBF0FBECDBFDF91CF911F910F91C3
:100B9000FF90EF900895EF92FF920F931F93CF93E2
:100BA000DF93CDB7DEB728970FB6F894DEBF0FBE40
:100BB000CDBF7C01CB014AE08E010F5F1F4FB80112
:100BC000A9D5F80101900020E9F73197AF01401B4A
:100BD000510BB801C70183DF28960FB6F894DEBF2A
:100BE0000FBECDBFDF91CF911F910F91FF90EF907E
:100BF0000895EF92FF920F931F93CF93DF93EC0131
:100C00007B018A01BA0117DF2881398181110DC06A
:100C10002115310519F0C9010E94B61219821882F6
:100C20001D821C821B821A8206C01D830C83B701A1
:100C3000C9010E943F14CE01DF91CF911F910F9106
:100C4000FF90EF900895FC011182108213821282AE
:100C5000158214826115710549F0FB010190002095
:100C6000E9F73197AF01461B570BC3CF08951F9289
:100C70000F920FB60F9211240BB60F922F933F9342
:100C80004F935F936F937F938F939F93AF93BF9394
:100C9000EF93FF9382EA92E0AADCFF91EF91BF917C
:100CA000AF919F918F917F916F915F914F913F9104
:100CB0002F910F900BBE0F900FBE0F901F901895A5
:100CC0001F920F920FB60F9211240BB60F922F9313
:100CD0008F939F93EF93FF93E091B202F091B30251
:100CE0008081E091B802F091B90282FD12C090813A
:100CF0008091BB028F5F8F732091BC02821751F0ED
:100D0000E091BB02F0E0EE55FD4F958F8093BB0262
:100D100001C08081FF91EF919F918F912F910F9052
:100D20000BBE0F900FBE0F901F9018951F920F9241
:100D30000FB60F9211242F933F938F939F93AF93EE
:100D4000BF9380919E0290919F02A091A002B091CA
:100D5000A10230917E0223E0230F2D3720F401966B
:100D6000A11DB11D05C026E8230F0296A11DB11DCE
:100D700020937E0280939E0290939F02A093A002F4
:100D8000B093A10280917A0290917B02A0917C02A3
:100D9000B0917D020196A11DB11D80937A029093BE
:100DA0007B02A0937C02B0937D02BF91AF919F9193
:100DB0008F913F912F910F900FBE0F901F9018951C
:100DC0001F920F920FB60F9211240BB60F920F9332
:100DD0001F932F933F934F935F936F937F938F93C3
:100DE0009F93AF93BF93EF93FF93CF93DF9300D085
:100DF00000D0CDB7DEB762E572E0CE01019623DF09
:100E00006AEC72E0CE0101963DDE40919A0250916B
:100E10009B0260919C0270919D02CE0101968CDE36
:100E200063EC72E0CE0101962DDE40919602509166
:100E300097026091980270919902CE0101967CDE32
:100E40006CEB72E0CE0101961DDE40919202509152
:100E500093026091940270919502CE0101966CDE2E
:100E600041E050E064E572E0CE01019638DE65EBCA
:100E700072E0CE01019606DE40910002509101021F
:100E80006091020270910302CE01019655DE6EEA76
:100E900072E0CE010196F6DD409176025091770224
:100EA0006091780270917902CE01019645DE67EA81
:100EB00072E0CE010196E6DD40E050E0BA01CE01DD
:100EC00001963ADE60EA72E0CE010196DBDD4091E8
:100ED0007202509173026091740270917502CE019A
:100EE00001962ADE69E972E0CE010196CBDD00E6CB
:100EF00012E0F80160817181CE0101964CDE62E959
:100F000072E0CE010196BEDDF80162817381CE01EF
:100F1000019641DE6BE872E0CE010196B3DDF80187
:100F200064817581CE01019636DE64E872E0CE01FF
:100F30000196A8DDF80166817781CE0101962BDE4E
:100F40006DE772E0CE0101969DDDF8016085718547
:100F5000CE01019620DE66E772E0CE01019692DDB9
:100F6000F80162857385CE01019615DE6FE672E0A9
:100F7000CE01019687DDF80164857585CE01019665
:100F80000ADE68E672E0CE0101967CDDF801668536
:100F90007785CE010196FFDD61E672E0CE01019614
:100FA00071DDF80160897189CE010196F4DD42E0BE
:100FB00050E066E572E0CE01019691DD4D815E81E3
:100FC00069817A8182EA92E09DDA89819A810E9420
:100FD000B61226960FB6F894DEBF0FBECDBFDF91D6
:100FE000CF91FF91EF91BF91AF919F918F917F91A1
:100FF0006F915F914F913F912F911F910F910F90A2
:101000000BBE0F900FBE0F901F9018951F920F925E
:101010000FB60F9211240BB60F922F923F924F9260
:101020005F926F927F928F929F92AF92BF92CF9278
:10103000DF92EF92FF921F932F933F934F935F9313
:101040006F937F938F939F93AF93BF93EF93FF9390
:10105000CF93DF93CDB7DEB72897DEBFCDBF8FE745
:1010600092E09C838B83E4E0F2E0FA83E98380E6FC
:1010700092E09E838D83ECE1F2E0F887EF8310E04D
:10108000412C512C320173016201EB81FC812190D2
:101090003190FC83EB83E981FA8141915191FA838C
:1010A000E9834A01550FAA08BB08812FA3DC092E4A
:1010B000000CAA0BBB0B88199909AA09BB09BC0132
:1010C000CD012AE0660F771F881F991F2A95D1F757
:1010D0009101330C440B550B281939094A095B0956
:1010E0000E94C41060E074E0621B730BED81FE810E
:1010F00061937193FE83ED83072E000C880B990B8F
:101100002DD74B015C01EF81F885219131914191FF
:101110005191F887EF8381D79B01AC01C701B601DC
:101120000E941C116B017C01A5019401C301B20155
:101130000E941C112B013C011F5F193009F0A5CF43
:101140009B01AC01C701B6010E94801160930002AF
:1011500070930102809302029093030220E030E03A
:1011600040EC50E40E941B116B017C0120919A021B
:1011700030919B0240919C0250919D024ED74B01B1
:101180005C0160937602709377028093780290936B
:10119000790220915C0230915D0240915E02509193
:1011A0005F02C701B6010E941B112091920230918B
:1011B000930240919402509195022FD79B01AC016C
:1011C000609372027093730280937402909375021D
:1011D000C0925C02D0925D02E0925E02F0925F02E9
:1011E000C501B4010E941C110E94E8116B017C0131
:1011F0005B0170935B0260935A02882499248C18D7
:101200009D08D7FCB40189E02FDB61E01A141B04B0
:101210000CF060E085E3ABDA6D2D661F6627661F74
:1012200088E0A5DAB40197FE04C06627772768191D
:10123000790986E019DB61E0181419040CF060E00C
:1012400087E095DA692D661F6627661F80E18FDAD1
:1012500028960FB6F894DEBF0FBECDBFDF91CF91B9
:10126000FF91EF91BF91AF919F918F917F916F917E
:101270005F914F913F912F911F91FF90EF90DF90E1
:10128000CF90BF90AF909F908F907F906F905F9026
:101290004F903F902F900F900BBE0F900FBE0F906E
:1012A0001F901895CF93DF93CDB7DEB72C970FB66D
:1012B000F894DEBF0FBECDBF789484B5826084BD44
:1012C00084B5816084BD85B5826085BD85B581604A
:1012D00085BD80916E00816080936E0010928100C8
:1012E0008091810082608093810080918100816083
:1012F0008093810080918000816080938000809144
:10130000B10084608093B1008091B00081608093CF
:10131000B000809191008260809391008091910053
:101320008160809391008091900081608093900013
:101330008091A10082608093A1008091A1008160D2
:101340008093A1008091A00081608093A000809193
:10135000210182608093210180912101816080932D
:1013600021018091200181608093200180917A0089
:10137000846080937A0080917A00826080937A0002
:1013800080917A00816080937A0080917A008068F1
:1013900080937A001092C1002FB7F89480919E023A
:1013A00090919F02A091A002B091A1022FBF883816
:1013B0009341A105B10528F59FE7A92E92E0B92E2A
:1013C00024E0E22E22E0F22E10E0812F13DBF50163
:1013D00020813181281739070CF49C01F5012193F4
:1013E00031935F01F70120813181821793070CF45B
:1013F0009C01F701219331937F011F5F193029F779
:10140000CBCFE091B202F091B30282E08083E09111
:10141000AE02F091AF021082E091B002F091B10201
:1014200080E180831092BA02E091B602F091B70297
:1014300086E08083E091B402F091B5028081806102
:101440008083E091B402F091B5028081886080834E
:10145000E091B402F091B502808180688083E091D0
:10146000B402F091B50280818F7D8083F894109250
:10147000A0001092A1001092A5001092A40085E394
:101480009CE09093A9008093A8008091A1008860BF
:101490008093A1008091A10084608093A10080913D
:1014A00072008260809372007894F8941092900099
:1014B00010929100109295001092940082EE94E0A8
:1014C0009093990080939800809191008860809318
:1014D00091008091910084608093910080917100CF
:1014E000826080937100789489E00E94630286E0B4
:1014F0000E94630285E30E94630288E00E94630207
:1015000087E00E94630280E10E94630282EA92E027
:1015100059D8181619060CF09CC068E572E0CE0187
:10152000079691DB0E941D0297FD0EC08A3091053F
:1015300059F089831A8241E050E0BE016F5F7F4F0E
:10154000CE010796CCDAEECF0B851C85011511056F
:1015500021F0EF81F885309721F410929102E1E9B2
:10156000F2E0D0800115110529F4E12CF12C01E005
:1015700010E003C0EE24E394F12C68E572E0CE01A4
:10158000019661DB8B859C85E816F90670F580175E
:10159000910708F48C01EF81F885E00FF11FB0800E
:1015A00010826F8178856E0D7F1D6115710561F068
:1015B000FB0101900020E9F73197AF01461B570B63
:1015C000CE01019616DB0BC089819A81009709F044
:1015D000CDD71A8219821E821D821C821B828F81A6
:1015E0009885FC01E00FF11FB08289819A810097F4
:1015F00021F07DD04B015C0103C0812C912C540162
:1016000089819A81B3D720E5D21209C080929A02CB
:1016100090929B02A0929C02B0929D0217C089E416
:10162000D81209C08092960290929702A0929802D6
:10163000B09299020BC0E4E4DE1208C080929202DC
:1016400090929302A0929402B09295028F81988515
:101650008DD755D85BCFE2EAF2E01382128288EE92
:1016600093E0A0E0B0E084839583A683B78384E40D
:1016700092E0918380838DEC90E0958784878CEC59
:1016800090E09787868788EC90E0918B808B89EC3F
:1016900090E0938B828B8AEC90E0958B848B8EEC20
:1016A00090E0978B868B118E128E138E148E089578
:1016B000EF920F931F93CF93DF93E80147FD02C092
:1016C00034E001C034E1E42F440FFF0BF7FF03C007
:1016D000F195E195F109E32E022F2E2FAE013DD0B9
:1016E000CE01DF91CF911F910F91EF900895662762
:1016F0007727C0C1FB01DC0105900D920020E1F7C6
:101700000895FC0105900020E9F7809590958E0FD3
:101710009F1F0895BB274A3031F4992322F4BDE27C
:10172000909581959F4F01C0BB27FB015527AA27A4
:10173000880F991FAA1FA41710F0A41B839550515E
:10174000B9F7A05DAA3308F0A95DA193009779F7D6
:10175000B111B1931192CB01EBC34F925F926F9293
:101760007F929F92AF92BF92CF92DF92EF92FF92C1
:101770000F931F93CF93DF93CDB7DEB729970FB6A3
:10178000F894DEBF0FBECDBF6A01122FB02E2BE33F
:10179000201720F0FF24F394F00E02C0BCE3FB2ED0
:1017A0000F2D27E0AE014F5F5F4FCAD2AC01898198
:1017B000982F9970913031F0E1FC06C0E0FE06C030
:1017C00090E205C09DE203C09BE201C090E0EE2DD7
:1017D000E07183FF3CC0911102C083E001C084E04E
:1017E000811718F4212F281B01C020E0E1110BC044
:1017F000F601822F30E2882319F031938150FBCF1C
:10180000C20ED11C20E0992329F0D6019C93F60149
:1018100031966F01C6010396E2FE0AC03EE4D6018E
:101820003C9341E411964C93119712963C9306C059
:101830003EE6F601308341E641833283FC01322FDC
:1018400040E2332309F442C041933150FACF82FF82
:1018500044C0911102C083E001C084E0811718F4F4
:10186000212F281B01C020E0E1110BC0F601822FBF
:1018700030E2882319F031938150FBCFC20ED11C86
:1018800020E0992329F0D6019C93F60131966F014F
:10189000C6010396E2FE0BC039E4D6013C933EE458
:1018A00011963C93119736E412963C9307C039E6A3
:1018B000F60130833EE6318336E63283FC01322F77
:1018C00040E2332319F041933150FBCFFC01E20F8A
:1018D000F11D10828EEF9FEFB7C0F1E0911101C0B2
:1018E000F0E06F2F70E01416150624F49A012F5FB4
:1018F0003F4F02C021E030E0260F371FBB2029F008
:101900006B2D70E06F5F7F4F02C060E070E0260FCC
:10191000371F612F70E0261737071CF4121B212F89
:1019200001C020E03E2D387159F4D601322F60E21B
:10193000332319F06D933150FBCFC20ED11C20E040
:10194000FF2331F0D6019C93B6016F5F7F4F6B018F
:10195000E1110BC0F601922F30E3992319F0319376
:101960009150FBCFC20ED11C20E09F2D940F3A81E5
:10197000782F7071A72E84FF03C0313309F4915082
:10198000191624F4993018F098E001C091E0E42F82
:10199000852F57FF02C0E0E080E06E2F782FE0E057
:1019A000F0E0AEE29A2E3A01691A71082A01461A4D
:1019B000570A0B2D10E01195019511096F3F8FEF1C
:1019C000780729F4D6019C92C60101966C0146174E
:1019D000570784F0661677066CF47F01E40CF51C5B
:1019E000A1E0B0E0AC0FBD1FEA0EFB1ED7011196BF
:1019F000BC9002C090E3B92E615071093196C601C6
:101A000001967C016017710724F0D601BC926C012D
:101A1000D5CF6417750741F4363320F4353321F4FC
:101A2000A11002C081E3B82EF601B082F701822F27
:101A300090E2882319F091938150FBCFF701E20FD8
:101A4000F11D108280E090E029960FB6F894DEBF79
:101A50000FBECDBFDF91CF911F910F91FF90EF90FF
:101A6000DF90CF90BF90AF909F907F906F905F90EE
:101A70004F9008956F927F928F929F92AF92BF92F4
:101A8000CF92DF92EF92FF920F931F93CF93DF934A
:101A9000EC017B016115710519F0DB018D939C93BD
:101AA0008E010F5F1F4F7880872D90E021D2892B08
:101AB00011F0E801F5CFBDE27B1205C00F5F1F4FAB
:101AC0007980C1E008C0EBE27E1204C08E010E5F97
:101AD0001F4F7980C0E06801F1E0CF1AD10843E0E0
:101AE00050E064E371E0C6010BD2892BE9F4680190
:101AF00022E0C20ED11C45E050E06FE271E0C60169
:101B0000FFD1892B21F4680187E0C80ED11CE114B4
:101B1000F10419F0D701CD92DC92C111F9C060E057
:101B200070E080E89FE7FDC043E050E06CE271E0C8
:101B3000C601E6D1892B51F4E114F10409F4EDC09A
:101B40000E5F1F4FF70111830083E7C0680160E05B
:101B500070E0CB0100E010E0F601D0EDD70DDA30F7
:101B600050F52C2F2260622E2C2F2870C2FF05C04A
:101B7000211127C00F5F1F4F24C0222311F00150F5
:101B80001109A5E0B0E09B01AC011AD34B015C0147
:101B9000880C991CAA1CBB1CC501B4016D0F711DDA
:101BA000811D911D6839A9E97A078A07A9E19A0779
:101BB00040F0C66005C0DE3F51F4C3FD44C0C860BC
:101BC0006C2EBFEFCB1ADB0A7080C62DC5CF2D2F30
:101BD0002F7D2531C1F540814D3211F4C06106C021
:101BE0004B3221F0319621E030E006C03296D6012A
:101BF00011964C9122E030E0A0EDA40FAA3018F02D
:101C0000E21BF30B20C040E050E04038BCE05B0733
:101C10005CF49A01220F331F220F331F420F531F10
:101C2000440F551F4A0F511D3196DF0111972C911A
:101C3000A0EDA20FAA3048F3C4FF03C0519541950F
:101C40005109040F151FC1FF07C0E114F10421F071
:101C50003197D701ED93FC937FD1C370C33019F056
:101C60006B017C0106C06B017C01F7FAF094F7F878
:101C7000F09420E030E0A901C701B60169D18823C2
:101C800009F443C017FF06C0119501951109CBE473
:101C9000D1E002C0C3E6D1E05E01B8E1AB1AB10801
:101CA0004601BE2DAF2D90E2E92EF12C0E151F0539
:101CB0007CF0FE012591359145915491B4018B2F13
:101CC0009A2FABD14B01B82FA92F0E191F09EECFB8
:101CD0002497F594E794CA15DB0541F76401EB2ED0
:101CE000FA2E8E2D880F8F2D881F8F3F41F020E018
:101CF00030E0A901C701B6012BD1811106C082E2F3
:101D000090E09093400380933F03C701B60109C060
:101D100060E070E080E89FEF04C060E070E080EC7D
:101D20009FE7DF91CF911F910F91FF90EF90DF9090
:101D3000CF90BF90AF909F908F907F906F900895BD
:101D4000283008F027E03327DA01990F311D87FD8D
:101D5000916000966105710539F432602E5F3D9304
:101D600030E32A95E1F708959F3F30F08038710500
:101D7000610509F03C5F3C5F3D93913008F080685D
:101D8000911DDF93CF931F930F93FF92EF92192F23
:101D9000987F9695E92F96959695E90FFF27EF5333
:101DA000FE4F99273327EE24FF24A701E701059072
:101DB0000894079428F4360FE71EF81E491F511D9A
:101DC000660F771F881F991F0694A1F70590079447
:101DD00028F4E70EF81E491F561FC11D770F881FF4
:101DE000991F661F0694A1F70590079428F4F80E32
:101DF000491F561FC71FD11D880F991F661F771FC8
:101E00000694A1F70590079420F4490F561FC71FA9
:101E1000D81F990F661F771F881F0694A9F7849112
:101E20001095177041F0D695C79557954795F7943B
:101E3000E7941A95C1F7E7E6F1E0689415901591DB
:101E400035916591959105907FE27395E118F10ABE
:101E5000430B560BC90BD009C0F7E10CF11E431F11
:101E6000561FC91FD01D7EF4703311F48A95E6CF3A
:101E7000E894015030F0080F0AF40027021708F424
:101E8000202F2395022F7A3328F079E37D932A952A
:101E9000E9F710C07D932A9589F606949795679582
:101EA000379517951794E118F10A430B560BC90B98
:101EB000D00998F023957E9173957A3308F070E3FA
:101EC0007C932013B8F77E9170617D9330F08395F9
:101ED00071E37D9370E32A95E1F71124EF90FF9071
:101EE0000F911F91CF91DF91992787FD90950895CC
:101EF0009111F6C0803219F089508550D0F70895BD
:101F0000FB01DC014150504088F08D9181341CF080
:101F10008B350CF4805E659161341CF06B350CF4EC
:101F2000605E861B611171F3990B0895881BFCCFCD
:101F3000DC01FC01672F71917723E1F7329704C030
:101F40007C916D9370836291AE17BF07C8F30895BB
:101F500040D008F481E00895E89409C097FB3EF46E
:101F600090958095709561957F4F8F4F9F4F9923E6
:101F7000A9F0F92F96E9BB279395F6958795779564
:101F80006795B795F111F8CFFAF4BB0F11F460FF24
:101F90001BC06F5F7F4F8F4F9F4F16C0882311F07C
:101FA00096E911C0772321F09EE8872F762F05C090
:101FB000662371F096E8862F70E060E02AF09A952B
:101FC000660F771F881FDAF7880F9695879597F920
:101FD0000895990F0008550FAA0BE0E8FEEF1616BA
:101FE0001706E807F907C0F012161306E407F5070D
:101FF00098F0621B730B840B950B39F40A2661F081
:10200000232B242B252B21F408950A2609F4A14023
:10201000A6958FEF811D811D08950BD07BC06CD0DC
:1020200028F071D018F0952309F05DC062C011242A
:10203000A5C081D0A0F3959FD1F3950F50E0551F17
:10204000629FF001729FBB27F00DB11D639FAA270D
:10205000F00DB11DAA1F649F6627B00DA11D661F5C
:10206000829F2227B00DA11D621F739FB00DA11D7D
:10207000621F839FA00D611D221F749F3327A00D37
:10208000611D231F849F600D211D822F762F6A2FD3
:1020900011249F5750408AF0E1F088234AF0EE0F58
:1020A000FF1FBB1F661F771F881F91505040A9F765
:1020B0009E3F510570F017C061C05F3FECF3983E42
:1020C000DCF3869577956795B795F795E7959F5FCC
:1020D000C1F7FE2B880F911D9695879597F9089566
:1020E00099278827089597F99F6780E870E060E056
:1020F00008959FEF80EC089500240A9416161706A1
:1021000018060906089500240A94121613061406E8
:1021100005060895092E0394000C11F4882352F04B
:10212000BB0F40F4BF2B11F460FF04C06F5F7F4F03
:102130008F4F9F4F089557FD9058440F551F59F0EA
:102140005F3F71F04795880F97FB991F61F09F3FA4
:1021500079F087950895121613061406551FF2CFCD
:102160004695F1DF08C0161617061806991FF1CF1D
:1021700086957105610508940895E894BB27662744
:102180007727CB0197F90895052E97FB16F4009455
:102190000FD057FD05D01ED007FC02D046F408C072
:1021A00050954095309521953F4F4F4F5F4F089583
:1021B00090958095709561957F4F8F4F9F4F0895B3
:1021C0002BD0A59F900DB49F900DA49F800D911DC5
:1021D00011240895A1E21A2EAA1BBB1BFD010DC0FC
:1021E000AA1FBB1FEE1FFF1FA217B307E407F507C7
:1021F00020F0A21BB30BE40BF50B661F771F881FA3
:10220000991F1A9469F760957095809590959B0138
:10221000AC01BD01CF010895A29FB001B39FC001E1
:10222000A39F700D811D1124911DB29F700D811D02
:102230001124911D08955058BB27AA270ED06ACFAC
:102240005BDF30F060DF20F031F49F3F11F41EF4CB
:1022500050CF0EF4E095E7FB46CFE92F6CDF80F31B
:10226000BA17620773078407950718F071F49EF593
:1022700084CF0EF4E0950B2EBA2FA02D0B01B901DF
:1022800090010C01CA01A0011124FF27591B99F0EC
:10229000593F50F4503E68F11A16F040A22F232FF8
:1022A000342F4427585FF3CF469537952795A79548
:1022B000F0405395C9F77EF41F16BA0B620B730BEF
:1022C000840BBAF09150A1F0FF0FBB1F661F771F60
:1022D000881FC2F70EC0BA0F621F731F841F48F415
:1022E000879577956795B795F7959E3F08F0B3CF9B
:1022F0009395880F08F09927EE0F97958795089585
:102300000CD008CF00DF40F0F7DE30F021F45F3F63
:1023100019F0E9CE511132CFECCE0DDF98F39923AD
:10232000C9F35523B1F3951B550BBB27AA27621799
:102330007307840738F09F5F5F4F220F331F441FDE
:10234000AA1FA9F333D00E2E3AF0E0E830D0915016
:102350005040E695001CCAF729D0FE2F27D0660F03
:10236000771F881FBB1F261737074807AB07B0E842
:1023700009F0BB0B802DBF01FF2793585F4F2AF058
:102380009E3F510568F0AFCEF9CE5F3FECF3983E2B
:10239000DCF3869577956795B795F7959F5FC9F7B5
:1023A000880F911D9695879597F90895E1E0660F3E
:1023B000771F881FBB1F621773078407BA0720F0B7
:1023C000621B730B840BBA0BEE1F88F7E095089520
:1023D00004D06894B111D2CE0895B5DE88F09F572D
:1023E00090F0B92F9927B751A0F0D1F0660F771F61
:1023F000881F991F1AF0BA95C9F712C0B13081F041
:10240000BCDEB1E00895B9CE672F782F8827B85F7A
:1024100039F0B93FCCF3869577956795B395D9F7A1
:102420003EF490958095709561957F4F8F4F9F4FAB
:102430000895EE0FFF1F881F8BBF0790F691E02DC8
:102440001994CF93DF938230910510F482E090E0ED
:10245000E0914303F091440320E030E0C0E0D0E09D
:10246000309711F14081518148175907C0F0481742
:10247000590761F482819381209719F09B838A83A5
:102480002BC0909344038093430326C0211531054C
:1024900019F04217530718F49A01BE01DF01EF014A
:1024A0000280F381E02DDCCF2115310509F1281BD5
:1024B000390B2430310590F412968D919C9113972D
:1024C0006115710521F0FB019383828304C0909311
:1024D000440380934303FD01329644C0FD01E20FA3
:1024E000F31F81939193225031092D933C933AC06D
:1024F0002091410330914203232B41F42091180293
:102500003091190230934203209341032091160227
:10251000309117022115310541F42DB73EB7409196
:102520001A0250911B02241B350BE0914103F091DC
:102530004203E217F307A0F42E1B3F0B28173907BD
:1025400078F0AC014E5F5F4F2417350748F04E0F0F
:102550005F1F50934203409341038193919302C0C4
:10256000E0E0F0E0CF01DF91CF9108950F931F934A
:10257000CF93DF93009709F48CC0FC01329713824C
:10258000128200914303109144030115110581F457
:1025900020813181820F931F2091410330914203AA
:1025A0002817390779F5F0934203E093410371C08E
:1025B000D80140E050E0AE17BF0750F412962D91BD
:1025C0003C911397AD012115310509F1D901F3CFE4
:1025D0009D01DA013383228360817181860F971F09
:1025E0008217930769F4EC0128813981260F371F80
:1025F0002E5F3F4F318320838A819B819383828327
:10260000452B29F4F0934403E093430342C013960F
:10261000FC93EE931297ED01499159919E01240F7D
:10262000351FE217F30771F480819181840F951FA4
:10263000029611969C938E938281938113969C931C
:102640008E931297E0E0F0E0D80112968D919C9164
:102650001397009719F0F8018C01F6CF8D919C919A
:1026600098012E5F3F4F820F931F209141033091BD
:1026700042032817390769F4309729F4109244036C
:102680001092430302C013821282109342030093FC
:102690004103DF91CF911F910F9108956F927F9227
:1026A0008F929F92AF92BF92CF92DF92EF92FF9262
:1026B0000F931F93CF93DF93EC01009781F4CB012D
:1026C000DF91CF911F910F91FF90EF90DF90CF900E
:1026D000BF90AF909F908F907F906F90B2CEFC0193
:1026E000E60FF71F9C0122503109E217F30708F4A7
:1026F000A8C0D9010D911C91119706171707A8F0D2
:102700000530110508F49BC0C80104978617970788
:1027100008F495C002501109061B170B0193119381
:102720006D937C93CF0122DF8AC05B01A01AB10AAE
:102730004C01800E911EA0914303B091440340E0F0
:1027400050E0E12CF12C109709F44AC0A815B90506
:10275000D1F56D907C901197630182E0C80ED11C79
:10276000CA14DB0480F1A3014A195B096A0182E003
:10277000C80ED11C1296BC9012971396AC91B5E07E
:10278000CB16D10440F0B282A38351834083D90198
:102790006D937C930AC00E5F1F4FC301800F911F82
:1027A000F90191838083EB2DFA2FE114F10431F0CC
:1027B000D7011396FC93EE93129741C0F093440314
:1027C000E09343033CC08D919C91119748175907A2
:1027D00008F4AC017D0112960D90BC91A02DB3CFF1
:1027E000809141039091420388159905E1F44617C1
:1027F0005707C8F48091160290911702009741F490
:102800008DB79EB740911A0250911B02841B950B05
:10281000E817F907B0F4F0934203E0934103F9019C
:10282000718360830CC0CB010CDE7C01009749F002
:10283000A801BE011BD0CE0199DEC70104C0CE01A4
:1028400002C080E090E0DF91CF911F910F91FF9047
:10285000EF90DF90CF90BF90AF909F908F907F9040
:102860006F90089581E090E0F89410C0FB01DC01C6
:1028700002C001900D9241505040D8F70895FB01DD
:10288000DC0101900D920020E1F70895F894FFCF4C
:102890000000C04000040004000400040004000420
:1028A0000004000400040000450380006666E63F63
:1028B00033333340333373409A9999400000C0401A
:1028C0006666E640333303413333134133332341E8
:1028D0000000000018038202B1025E03E202C0029F
:0A28E000D4027B002C007D0A0000EA
:00000001FF
